{
	"data": {
		"bytecode": {
			"linkReferences": {},
			"object": "608060405234801561001057600080fd5b5060008060003390508091508192506000806000806000806000604051610036906105a6565b604051809103906000f080158015610052573d6000803e3d6000fd5b5060405161005f906105b3565b610069919061060e565b604051809103906000f080158015610085573d6000803e3d6000fd5b50604051610092906105c0565b604051809103906000f0801580156100ae573d6000803e3d6000fd5b506040516100bb906105b3565b6100c5919061060e565b604051809103906000f0801580156100e1573d6000803e3d6000fd5b506040516100ee906105cd565b604051809103906000f08015801561010a573d6000803e3d6000fd5b50604051610117906105b3565b610121919061060e565b604051809103906000f08015801561013d573d6000803e3d6000fd5b5060405161014a906105da565b604051809103906000f080158015610166573d6000803e3d6000fd5b50604051610173906105b3565b61017d919061060e565b604051809103906000f080158015610199573d6000803e3d6000fd5b506040516101a6906105e7565b604051809103906000f0801580156101c2573d6000803e3d6000fd5b506040516101cf906105f4565b604051809103906000f0801580156101eb573d6000803e3d6000fd5b506040516101f890610601565b604051809103906000f080158015610214573d6000803e3d6000fd5b509650965096509650965096509650846001558560025586600355836004556340c10f1960e01b608052846084526a05955e3bb3e743fec0000060a4526000806044608060008b5af150896084526a0108b2a2c280290940000060a4526000806044608060008b5af150856084526a01a784379d99db4200000060a4526000806044608060008b5af15063b88bab2960e01b60805263095ea7b360e01b6084528860a4526000806044608060008a5af150600080604460806000895af1506703b9b4b39032b93960a91b608452605960a4526000806044608060008a5af1507c07736967206572720000000000000000000000000000000000000000016084527f68747470733a2f2f776879696e6469616e2e64646e732e6e65742f69706e732f60a45260008060446080828a5af1507c07736967206572720000000000000000000000000000000000000000026084527f6b326b3472386a7064656e6869356932686b6461346c76393130303265316a6460a45260008060446080828a5af1507c07736967206572720000000000000000000000000000000000000000036084527f6e3668697277327871377364626d6878353264746e62716a2f0000000000000060a45260008060446080828a5af1508760051b608452600160a452600080604460806000895af1507409a23bf241c1c918fc265cb52ea98fcea99add7f60608452600160a4526000806044608082895af15074081e1bc27fe88a9e5b8f0dc70a099e9df85ba25940608452600160a4526000806044608082895af15063a9059cbb60e01b6084528660a452600080604460806000895af150600080604460806000885af1506000806044608060008a5af150630bfa817560e21b6084528560a452600080604460806000895af150600080604460806000885af1506703b0b6ba1032b93960a91b608452674563918244f4000060a4526000806044608082885af150600160a4526000806044608060008a5af15069025cdd5cdc195b991959609a1b608452600160a4526000806044608060008a5af15060016084528260a452600080604460806000895af15060026084528160a452600080604460806000895af15060036084528060a452600080604460806000895af1506331a9108f60e11b6084528960a452600080604460806000895af1508460a4526000806044608060008b5af1506000806044608060008a5af150600080604460806000885af15050505050505050505050610622565b610673806106ef83390190565b61029480610d6283390190565b61111c80610ff683390190565b610aa08061211283390190565b6102cc80612bb283390190565b61024580612e7e83390190565b610245806130c383390190565b6102948061330883390190565b6001600160a01b0391909116815260200190565b60bf806106306000396000f3fe6080604052348015600f57600080fd5b506004361060285760003560e01c806353e8a55014602d575b600080fd5b6033604a565b60405160419493929190605e565b60405180910390f35b600154600254600354600454929391929091565b6001600160a01b0394851681529284166020840152908316604083015290911660608201526080019056fea26469706673582212207f2c1cd98e88e67376a00188e370d51756c47732c230742c2f435149766e30db64736f6c63430008000033608060405234801561001057600080fd5b50336331a9108f60e11b556106498061002a6000396000f3fe608060405234801561001057600080fd5b50600436106100b45760003560e01c806342966c681161007157806342966c681461013c57806370a082311461014f5780638da5cb5b1461016257806395d89b4114610177578063a9059cbb1461017f578063dd62ed3e14610192576100b4565b806306fdde03146100b9578063095ea7b3146100d757806318160ddd146100f757806323b872dd1461010c578063313ce5671461011f57806340c10f1914610127575b600080fd5b6100c16101a5565b6040516100ce9190610597565b60405180910390f35b6100ea6100e5366004610537565b6101c8565b6040516100ce919061058c565b6100ff61020e565b6040516100ce91906105ea565b6100ea61011a3660046104fc565b61021a565b6100ff6102e4565b61013a610135366004610537565b6102e9565b005b61013a61014a366004610560565b61035f565b6100ff61015d3660046104a9565b61039c565b61016a6103a3565b6040516100ce9190610578565b6100c16103af565b6100ea61018d366004610537565b6103cb565b6100ff6101a03660046104ca565b61047d565b60606020608052600a60a0526926b0b3a0b832a1b7b4b760b11b60c05260606080f35b60003360005282602052816040600020558160005282337f8c5be1e5ebec7d5bd14f71427d1e84f3dd0314c0f7b2291e5b200ac8c7c3b92560206000a350600192915050565b6380ac58cd60e01b5490565b60008360008154116000335411600030541117171561025c5762461bcd60e51b608052600160e51b60a05269025cdd5cdc195b991959609a1b60c05260646080fd5b84600101805486600052856020526040600020805480871183881117156102a85762461bcd60e51b608052600160e51b60a0526b02db9bc8185c1c1c9bdd985b608a1b60c05260646080fd5b86900390558490039055600184018054840190556000838152859033906000805160206105f483398151915290602090a3506001949350505050565b601290565b6331a9108f60e11b5433146103215762461bcd60e51b608052600160e51b60a05269096e6f2061636365737360981b60c05260646080fd5b8160010181815401815550806380ac58cd60e01b54016380ac58cd60e01b55806000528160006000805160206105f483398151915260206000a35050565b3360010181815403815550806380ac58cd60e01b54036380ac58cd60e01b55806000526000336000805160206105f483398151915260206000a350565b6001015490565b6331a9108f60e11b5490565b60606020608052600360a052624d414360e81b60c05260606080f35b60008260008154116000335411600030541117171561040d5762461bcd60e51b608052600160e51b60a05269025cdd5cdc195b991959609a1b60c05260646080fd5b336001018054808511156104465762461bcd60e51b608052600160e51b60a0526b02db9bc8185c1c1c9bdd985b608a1b60c05260646080fd5b848103825550846001019050838154018155508260005283336000805160206105f483398151915260206000a35060019392505050565b6000918252602052604090205490565b80356001600160a01b03811681146104a457600080fd5b919050565b6000602082840312156104ba578081fd5b6104c38261048d565b9392505050565b600080604083850312156104dc578081fd5b6104e58361048d565b91506104f36020840161048d565b90509250929050565b600080600060608486031215610510578081fd5b6105198461048d565b92506105276020850161048d565b9150604084013590509250925092565b60008060408385031215610549578182fd5b6105528361048d565b946020939093013593505050565b600060208284031215610571578081fd5b5035919050565b6001600160a01b0391909116815260200190565b901515815260200190565b6000602080835283518082850152825b818110156105c3578581018301518582016040015282016105a7565b818111156105d45783604083870101525b50601f01601f1916929092016040019392505050565b9081526020019056feddf252ad1be2c89b69c2b068fc378daa952ba7f163c4a11628f55a4df523b3efa264697066735822122082dc3e2e81590f971e74b0466cd271ccddf365c5fc8396058b973ce027cc7afa64736f6c63430008000033608060405234801561001057600080fd5b5060405161029438038061029483398101604081905261002f91610047565b336331a9108f60e11b55635b5e139f60e01b55610075565b600060208284031215610058578081fd5b81516001600160a01b038116811461006e578182fd5b9392505050565b610210806100846000396000f3fe6080604052600436106100435760003560e01c8063097b33f71461009d5780635c60da1b146100d35780638da5cb5b146100f5578063b88bab291461010a57610075565b36610075573660008037600080366000635b5e139f60e01b545af43d806000803e81801561007057816000f35b816000fd5b3660008037600080366000635b5e139f60e01b545af43d806000803e81801561007057816000f35b3480156100a957600080fd5b506100bd6100b8366004610184565b61012c565b6040516100ca91906101d1565b60405180910390f35b3480156100df57600080fd5b506100e8610130565b6040516100ca91906101bd565b34801561010157600080fd5b506100e861013c565b34801561011657600080fd5b5061012a61012536600461019c565b610148565b005b5490565b635b5e139f60e01b5490565b6331a9108f60e11b5490565b6331a9108f60e11b5433146101805762461bcd60e51b608052600160e51b60a05269096e6f2061636365737360981b60c05260646080fd5b9055565b600060208284031215610195578081fd5b5035919050565b600080604083850312156101ae578081fd5b50508035926020909101359150565b6001600160a01b0391909116815260200190565b9081526020019056fea264697066735822122004b8107d807c3b076fb1145182f7aedab8d5949c996c426332878f18e636b46764736f6c63430008000033608060405234801561001057600080fd5b50336331a9108f60e11b556110f28061002a6000396000f3fe608060405234801561001057600080fd5b50600436106101735760003560e01c80636352211e116100de578063b88d4fde11610097578063d67f1f0711610071578063d67f1f0714610308578063db6dc27e1461031b578063e985e9c51461033f578063e9a1b0431461035257610173565b8063b88d4fde146102cf578063c87b56dd146102e2578063cbb2dd81146102f557610173565b80636352211e14610280578063638b91261461029357806370a08231146102a65780638da5cb5b146102b457806395d89b41146101b6578063a22cb465146102bc57610173565b806323b872dd1161013057806323b872dd1461021357806329e99f07146102265780632fea05d41461023957806340c10f191461025a57806342842e0e1461021357806342966c681461026d57610173565b806301ffc9a71461017857806306661abd146101a157806306fdde03146101b6578063081812fc146101cb578063095ea7b3146101eb5780630e44553614610200575b600080fd5b61018b610186366004610ee0565b610365565b6040516101989190610fe5565b60405180910390f35b6101a961037f565b6040516101989190611051565b6101be61038b565b604051610198919061101e565b6101de6101d9366004610f08565b6103aa565b6040516101989190610f9f565b6101fe6101f9366004610e14565b6103ba565b005b6101fe61020e366004610f20565b610441565b6101fe610221366004610cd3565b61048c565b6101fe610234366004610f08565b61049b565b61024c610247366004610c80565b6104ad565b604051610198929190610ff0565b6101fe610268366004610e14565b6104fb565b6101fe61027b366004610f08565b61055d565b6101de61028e366004610f08565b61060c565b6101fe6102a1366004610f20565b610619565b6101a961028e366004610c80565b6101de61066c565b6101fe6102ca366004610dda565b610678565b6101fe6102dd366004610d0e565b6106b7565b6101be6102f0366004610f08565b6106c7565b6101fe610303366004610e3d565b610749565b6101fe610316366004610e3d565b6107b3565b61032e610329366004610f08565b6107cb565b604051610198959493929190610fb3565b61018b61034d366004610ca1565b610814565b6101fe610360366004610f20565b610824565b6380ac58cd60e01b8114635b5e139f60e01b919091141790565b6380ac58cd60e01b5490565b60606020608052600660a052654d616761706560d01b60c05260606080f35b6000908152602090206001015490565b806000526020600020805480600052336020526040600020546000526000511581331415161561040d5762461bcd60e51b608052600160e51b60a05269096e6f2061636365737360981b60c05260646080fd5b8360018301558284827f8c5be1e5ebec7d5bd14f71427d1e84f3dd0314c0f7b2291e5b200ac8c7c3b925600080a450505050565b60005b8581101561045d5761045533610853565b600101610444565b50851561046d5761046d866108a3565b61047b86868686868661091a565b61048433610a0e565b505050505050565b6104968282610afe565b505050565b80156104aa576104aa816108a3565b50565b6000818152602080822060010154630bfa817560e21b83529081905260408220825b60058110156104f457808201548514156104ec57600193506104f4565b6001016104cf565b5050915091565b6331a9108f60e11b5433146105335762461bcd60e51b608052600160e51b60a05269096e6f2061636365737360981b60c05260646080fd5b60005b8181101561054f5761054783610853565b600101610536565b5061055982610a0e565b5050565b6000335411600030541117156105965762461bcd60e51b608052600160e51b60a05269025cdd5cdc195b991959609a1b60c05260646080fd5b80600052602060002080543381146105d35762461bcd60e51b608052600160e51b60a0526b02db9bc8185c1c1c9bdd985b608a1b60c05260646080fd5b60008255600060038301558060005260206000209150600182540382558260008260008051602061109d833981519152600080a4505050565b6000908152602090205490565b63a9059cbb60e01b608052336084528560a45260008060446080600063a9059cbb60e01b545af15060005b8581101561065d5761065533610853565b600101610644565b5061047b86868686868661091a565b6331a9108f60e11b5490565b3360005281602052806040600020558060005281337f17307eab39ab6107e8899845ad3d59bd9653f200f220920489ca2b5937696c3160206000a35050565b6106c18383610afe565b50505050565b6040516703b9b4b39032b93960a91b548082526001906020015b602081111561070f576703b9b4b39032b93960a91b82015460208302840152600190910190601f19016106e1565b5060200281016040528061072283610bb3565b604051602001610733929190610f70565b6040516020818303038152906040529050919050565b60005b8681101561078b5761078388888381811061077757634e487b7160e01b600052603260045260246000fd5b9050602002013561055d565b60010161074c565b50841561079b5761079b856108a3565b6107aa8560008686868661091a565b50505050505050565b6107c287878787878787610749565b6107aa33610853565b6000806000806000630bfa817560e21b6000528560205260406000208054608052600181015460a052600281015460c052600381015460e0526004810154610100525060a06080f35b6000918252602052604090205490565b61082d8561055d565b61083633610853565b851561084557610845866108a3565b61048486868686868661091a565b60016380ac58cd60e01b5401806380ac58cd60e01b55816000526020600020600181540181558160005260206000209050828155508082600060008051602061109d833981519152600080a45050565b63a9059cbb60e01b546323b872dd60e01b608052336084523060a4528160c452600080606460806000855af16108fa5762461bcd60e51b608052600160e51b60a0526703b0b6ba1032b93960a91b60c05260646080fd5b630852cd8d60e31b60805281608452600080602460806000855af1505050565b6000335411600030541117156109535762461bcd60e51b608052600160e51b60a05269025cdd5cdc195b991959609a1b60c05260646080fd5b6000326080528460a0528660c0528560e0526080802090506000600182868686604051600081526020016040526040516109909493929190611000565b6020604051602081039080840390855afa1580156109b2573d6000803e3d6000fd5b50505060206040510351905085600a1b600081541163095ea7b360e01b548314151715610a005762461bcd60e51b608052600160e51b60a0526703b9b4b39032b93960a91b60c05260646080fd5b600190555050505050505050565b8060005260206000206002810160018154018155600182019050805480610a7657426000523360205269025cdd5cdc195b991959609a1b546703b0b6ba1032b93960a91b54604060002006019050808255806703b0b6ba1032b93960a91b0160018154018155505b630bfa817560e21b600052806020525060406000209050600060008051602061109d83398151915260005b6005811015610adf578084015486811415610ab857005b8060005250600260206000200154945081851015610ad7578092508491505b600101610aa1565b5084600052806020600020541115610af75784828401555b5050505050565b600081600052602060002080549150816000523360205260406000205460038201546000526000811433841415866000511415161615610b635762461bcd60e51b608052600160e51b60a0526b02db9bc8185c1c1c9bdd985b608a1b60c05260646080fd5b84825560006003830155826000526020600020905060018154038155846000526020600020905060018154018155505081838260008051602061109d833981519152600080a46104968184610c0e565b606060008083610bc85750600360fc1b905060015b5b8315610bf257600a8085049406603001600160f81b026101009092049190911790600101610bc9565b6040519250604083016040528083525080602083015250919050565b6000815411600083541160003354116000305411171717156105595762461bcd60e51b608052600160e51b60a05269025cdd5cdc195b991959609a1b60c05260646080fd5b80356001600160a01b0381168114610c6a57600080fd5b919050565b803560ff81168114610c6a57600080fd5b600060208284031215610c91578081fd5b610c9a82610c53565b9392505050565b60008060408385031215610cb3578081fd5b610cbc83610c53565b9150610cca60208401610c53565b90509250929050565b600080600060608486031215610ce7578081fd5b610cf084610c53565b9250610cfe60208501610c53565b9150604084013590509250925092565b60008060008060808587031215610d23578081fd5b610d2c85610c53565b93506020610d3b818701610c53565b935060408601359250606086013567ffffffffffffffff80821115610d5e578384fd5b818801915088601f830112610d71578384fd5b813581811115610d8357610d83611086565b604051601f8201601f1916810185018381118282101715610da657610da6611086565b60405281815283820185018b1015610dbc578586fd5b81858501868301379081019093019390935250939692955090935050565b60008060408385031215610dec578182fd5b610df583610c53565b915060208301358015158114610e09578182fd5b809150509250929050565b60008060408385031215610e26578182fd5b610e2f83610c53565b946020939093013593505050565b600080600080600080600060c0888a031215610e57578283fd5b873567ffffffffffffffff80821115610e6e578485fd5b818a0191508a601f830112610e81578485fd5b813581811115610e8f578586fd5b8b60208083028501011115610ea2578586fd5b60209283019950975050880135945060408801359350610ec460608901610c6f565b92506080880135915060a0880135905092959891949750929550565b600060208284031215610ef1578081fd5b81356001600160e01b031981168114610c9a578182fd5b600060208284031215610f19578081fd5b5035919050565b60008060008060008060c08789031215610f38578182fd5b863595506020870135945060408701359350610f5660608801610c6f565b92506080870135915060a087013590509295509295509295565b60008351610f8281846020880161105a565b835190830190610f9681836020880161105a565b01949350505050565b6001600160a01b0391909116815260200190565b6001600160a01b0395861681529385166020850152918416604084015283166060830152909116608082015260a00190565b901515815260200190565b9115158252602082015260400190565b93845260ff9290921660208401526040830152606082015260800190565b600060208252825180602084015261103d81604085016020870161105a565b601f01601f19169190910160400192915050565b90815260200190565b60005b8381101561107557818101518382015260200161105d565b838111156106c15750506000910152565b634e487b7160e01b600052604160045260246000fdfeddf252ad1be2c89b69c2b068fc378daa952ba7f163c4a11628f55a4df523b3efa26469706673582212206a8b0fb4369812fbd3fd177e1b1d4932ba04a65e11e45598c9da109c3bde5f9f64736f6c63430008000033608060405234801561001057600080fd5b50336331a9108f60e11b55610a768061002a6000396000f3fe608060405234801561001057600080fd5b50600436106100ce5760003560e01c80638da5cb5b1161008c578063c6c3bbe611610066578063c6c3bbe6146101ac578063c9d27afe146101bf578063d6f7ddf9146101d2578063f58545df146101e5576100ce565b80638da5cb5b14610171578063b12d96f714610186578063bacbe2da14610199576100ce565b806280178a146100d357806306661abd146100e85780631c64b67014610106578063491b6ba31461012a578063716f81a51461013d57806379131a1914610150575b600080fd5b6100e66100e13660046108d4565b6101f8565b005b6100f06102a8565b6040516100fd9190610a37565b60405180910390f35b610119610114366004610932565b6102b4565b6040516100fd9594939291906109b2565b6100e661013836600461097d565b6102f4565b6100e661014b366004610879565b610330565b61016361015e36600461081d565b6103b9565b6040516100fd929190610a09565b6101796103ca565b6040516100fd919061099e565b6100f06101943660046108ab565b6103d6565b6100e66101a7366004610932565b6104b2565b6100e66101ba36600461083e565b610525565b6100e66101cd36600461094a565b6105a9565b6100e66101e03660046108ab565b610617565b6100e66101f33660046108ab565b61062b565b61020785600086868686610692565b63a9059cbb60e01b608052336084528460a45260008060446080600063a9059cbb60e01b545af16102595762461bcd60e51b608052600160e51b60a0526703b0b6ba1032b93960a91b60c05260646080fd5b8560051b546102a0575050600684901b80548085111561029a5762461bcd60e51b608052600160e51b60a0526703b0b6ba1032b93960a91b60c05260646080fd5b84810382555b505050505050565b6380ac58cd60e01b5490565b6102bc6107e3565b60008060008085600052602060002060005b60098110156102eb578181015460806020830201526001016102ce565b50506101206080f35b8160005280602052337f5b6b68c7bdbd1a2670386a943b40bb818dd5806b1cbfdbe38b4b399a8a7e6eab60406000a261032c81610786565b5050565b6331a9108f60e11b5433146103685762461bcd60e51b608052600160e51b60a05269096e6f2061636365737360981b60c05260646080fd5b63b88bab2960e01b608052816084528060a45260008060a460806000875af16103b45762461bcd60e51b608052600160e51b60a05269096e6f2061636365737360981b60c05260646080fd5b505050565b600581901b5460069190911b549091565b6331a9108f60e11b5490565b6000630bfa817560e21b600052336004526040600060246000630bfa817560e21b545afa50602051610100831083541516811517156104385762461bcd60e51b608052600160e51b60a05269096e6f2061636365737360981b60c05260646080fd5b60016380ac58cd60e01b54019150816380ac58cd60e01b55816000526020600020836005820155846006820155336007820155816008820155505060ff82111561048157600391505b81600052807f33952ef907843fd2ddd118a92dd935debf65b72965a557a364ea08deffca032f60206000a292915050565b806000526020600020336007820154146104ef5762461bcd60e51b608052600160e51b60a05269096e6f2061636365737360981b60c05260646080fd5b600060058201555060008052807f33952ef907843fd2ddd118a92dd935debf65b72965a557a364ea08deffca032f60206000a250565b6331a9108f60e11b54331461055d5762461bcd60e51b608052600160e51b60a05269096e6f2061636365737360981b60c05260646080fd5b6340c10f1960e01b608052816084528060a45260008060a460806000875af16103b45762461bcd60e51b608052600160e51b60a05269096e6f2061636365737360981b60c05260646080fd5b6364e93d7f60e11b608052816084528060a452602060842060050154805460ff8211156105d557506003545b801560008060446080855af41517156106115762461bcd60e51b608052600160e51b60a05269096e6f2061636365737360981b60c05260646080fd5b50505050565b8160061b8181540181555061032c81610786565b8160051b5461065d5762461bcd60e51b608052600160e51b60a05269096e6f2061636365737360981b60c05260646080fd5b8060005281337fddf252ad1be2c89b69c2b068fc378daa952ba7f163c4a11628f55a4df523b3ef60206000a361032c81610786565b6000335411600030541117156106cb5762461bcd60e51b608052600160e51b60a05269025cdd5cdc195b991959609a1b60c05260646080fd5b6000326080528460a0528660c0528560e0526080802090506000600182868686604051600081526020016040526040516107089493929190610a19565b6020604051602081039080840390855afa15801561072a573d6000803e3d6000fd5b50505060206040510351905085600a1b600081541163095ea7b360e01b5483141517156107785762461bcd60e51b608052600160e51b60a0526703b9b4b39032b93960a91b60c05260646080fd5b600190555050505050505050565b6323b872dd60e01b608052336084523060a4528060c45260008060646080600063a9059cbb60e01b545af16107e05762461bcd60e51b608052600160e51b60a0526b02db9bc8185c1c1c9bdd985b608a1b60c05260646080fd5b50565b6040518060a001604052806005906020820280368337509192915050565b80356001600160a01b038116811461081857600080fd5b919050565b60006020828403121561082e578081fd5b61083782610801565b9392505050565b600080600060608486031215610852578182fd5b61085b84610801565b925061086960208501610801565b9150604084013590509250925092565b60008060006060848603121561088d578283fd5b61089684610801565b95602085013595506040909401359392505050565b600080604083850312156108bd578182fd5b6108c683610801565b946020939093013593505050565b60008060008060008060c087890312156108ec578182fd5b6108f587610801565b95506020870135945060408701359350606087013560ff81168114610918578283fd5b9598949750929560808101359460a0909101359350915050565b600060208284031215610943578081fd5b5035919050565b6000806040838503121561095c578182fd5b8235915060208301358015158114610972578182fd5b809150509250929050565b6000806040838503121561098f578182fd5b50508035926020909101359150565b6001600160a01b0391909116815260200190565b6101208101818760005b60058110156109db5781518352602092830192909101906001016109bc565b50505060a08201959095526001600160a01b0393841660c08201529190921660e08201526101000152919050565b9115158252602082015260400190565b93845260ff9290921660208401526040830152606082015260800190565b9081526020019056fea2646970667358221220c607b29fa4924dc49c95d8e799d7fc3e814931460016689531be0d9e53ac592764736f6c63430008000033608060405234801561001057600080fd5b506102ac806100206000396000f3fe6080604052600436106100345760003560e01c806314ea8c4e146100395780635bbc1a041461004e578063cfc347cf14610061575b600080fd5b61004c610047366004610232565b610098565b005b61004c61005c366004610232565b6100d3565b34801561006d57600080fd5b5061008161007c366004610211565b61011b565b60405161008f929190610266565b60405180910390f35b806000528183467f31a11e5f15e0fbf9fa21513afcd0b26821d8524893395636633bdac130be8ce260206000a46100ce81610133565b505050565b806000528183467f65e7d15f348dcceb483e723cc14dc98456634dffec85e8ff9772eae549a6159c60206000a461010a6000610133565b6100ce630bfa817560e21b82610180565b60009081526020902060028101546003909101549091565b33600052602060002060028101546000811461015757600382015483019250610169565b6703b0b6ba1032b93960a91b54830192505b5061017d905063a9059cbb60e01b82610180565b50565b81546323b872dd60e01b608052336084523060a4528160c452600080606460806000855af16101d45762461bcd60e51b608052600160e51b60a0526b02db9bc8185c1c1c9bdd985b608a1b60c05260646080fd5b630852cd8d60e31b60805281608452600080602460806000855af150505050565b80356001600160a01b038116811461020c57600080fd5b919050565b600060208284031215610222578081fd5b61022b826101f5565b9392505050565b600080600060608486031215610246578182fd5b83359250610256602085016101f5565b9150604084013590509250925092565b911515825260208201526040019056fea264697066735822122032033dc3d2b0a1de0c87fc5f0be7160ee9fce5b09187d00880b62a3dfad17f4964736f6c63430008000033608060405234801561001057600080fd5b50610225806100206000396000f3fe608060405234801561001057600080fd5b506004361061002b5760003560e01c8063c9d27afe14610030575b600080fd5b61004361003e3660046101bc565b610045565b005b60048101600052817f33952ef907843fd2ddd118a92dd935debf65b72965a557a364ea08deffca032f60206000a28160005260206000206000806000835b600585018110156100ef5780548061009e57819250506100ef565b80156100d457600160e51b8111600181146100be576001850194506100d2565b600186019550816000526000805360005191505b505b338114156100e65760009250506100ef565b50600101610083565b50630bfa817560e21b600052336004526040600060246000630bfa817560e21b545afa50836005018115600886015460205114156000511517171561013357600080fd5b33600052856000536000518255600283146002851417156101b35785801561016057600185019450610167565b6001840193505b5060076000526002841115610187576001600686015460051b5560066000525b60008155867f33952ef907843fd2ddd118a92dd935debf65b72965a557a364ea08deffca032f60206000a25b50505050505050565b600080604083850312156101ce578182fd5b82359150602083013580151581146101e4578182fd5b80915050925092905056fea2646970667358221220c8390e6f96d76714717ca55c0caf867176aa0e58ad988b5900e3cc5fa8fe3ffa64736f6c63430008000033608060405234801561001057600080fd5b50610225806100206000396000f3fe608060405234801561001057600080fd5b506004361061002b5760003560e01c8063c9d27afe14610030575b600080fd5b61004361003e3660046101bc565b610045565b005b60048101600052817f33952ef907843fd2ddd118a92dd935debf65b72965a557a364ea08deffca032f60206000a28160005260206000206000806000835b600585018110156100ef5780548061009e57819250506100ef565b80156100d457600160e51b8111600181146100be576001850194506100d2565b600186019550816000526000805360005191505b505b338114156100e65760009250506100ef565b50600101610083565b50630bfa817560e21b600052336004526040600060246000630bfa817560e21b545afa50836005018115600886015460205114156000511517171561013357600080fd5b33600052856000536000518255600283146002851417156101b35785801561016057600185019450610167565b6001840193505b5060076000526002841115610187576000600686015460051b5560066000525b60008155867f33952ef907843fd2ddd118a92dd935debf65b72965a557a364ea08deffca032f60206000a25b50505050505050565b600080604083850312156101ce578182fd5b82359150602083013580151581146101e4578182fd5b80915050925092905056fea2646970667358221220ce94865efe83220cd5852c446889ca1d648b34b44fa89f90b32b2fdc8c13aea964736f6c63430008000033608060405234801561001057600080fd5b50610274806100206000396000f3fe608060405234801561001057600080fd5b506004361061002b5760003560e01c8063c9d27afe14610030575b600080fd5b61004361003e36600461020b565b610045565b005b60048101600052817f33952ef907843fd2ddd118a92dd935debf65b72965a557a364ea08deffca032f60206000a28160005260206000206000806000835b600585018110156100ef5780548061009e57819250506100ef565b80156100d457600160e51b8111600181146100be576001850194506100d2565b600186019550816000526000805360005191505b505b338114156100e65760009250506100ef565b50600101610083565b50630bfa817560e21b600052336004526040600060246000630bfa817560e21b545afa50836005018115600886015460205114156000511517171561013357600080fd5b33600052856000536000518255600283146002851417156102025785801561016057600185019450610167565b6001840193505b50600760005260028411156101d65763a9059cbb60e01b6080526006850154608452600585015460a45260008060446080600063a9059cbb60e01b545af16101d05762461bcd60e51b608052600160e51b60a0526703b0b6ba1032b93960a91b60c05260646080fd5b60066000525b60008155867f33952ef907843fd2ddd118a92dd935debf65b72965a557a364ea08deffca032f60206000a25b50505050505050565b6000806040838503121561021d578182fd5b8235915060208301358015158114610233578182fd5b80915050925092905056fea2646970667358221220953c5afada4a310ffb069c860a66c0dba0973645cabb2275914d559c31a9e94164736f6c63430008000033",
			"opcodes": "PUSH1 0x80 PUSH1 0x40 MSTORE CALLVALUE DUP1 ISZERO PUSH2 0x10 JUMPI PUSH1 0x0 DUP1 REVERT JUMPDEST POP PUSH1 0x0 DUP1 PUSH1 0x0 CALLER SWAP1 POP DUP1 SWAP2 POP DUP2 SWAP3 POP PUSH1 0x0 DUP1 PUSH1 0x0 DUP1 PUSH1 0x0 DUP1 PUSH1 0x0 PUSH1 0x40 MLOAD PUSH2 0x36 SWAP1 PUSH2 0x5A6 JUMP JUMPDEST PUSH1 0x40 MLOAD DUP1 SWAP2 SUB SWAP1 PUSH1 0x0 CREATE DUP1 ISZERO DUP1 ISZERO PUSH2 0x52 JUMPI RETURNDATASIZE PUSH1 0x0 DUP1 RETURNDATACOPY RETURNDATASIZE PUSH1 0x0 REVERT JUMPDEST POP PUSH1 0x40 MLOAD PUSH2 0x5F SWAP1 PUSH2 0x5B3 JUMP JUMPDEST PUSH2 0x69 SWAP2 SWAP1 PUSH2 0x60E JUMP JUMPDEST PUSH1 0x40 MLOAD DUP1 SWAP2 SUB SWAP1 PUSH1 0x0 CREATE DUP1 ISZERO DUP1 ISZERO PUSH2 0x85 JUMPI RETURNDATASIZE PUSH1 0x0 DUP1 RETURNDATACOPY RETURNDATASIZE PUSH1 0x0 REVERT JUMPDEST POP PUSH1 0x40 MLOAD PUSH2 0x92 SWAP1 PUSH2 0x5C0 JUMP JUMPDEST PUSH1 0x40 MLOAD DUP1 SWAP2 SUB SWAP1 PUSH1 0x0 CREATE DUP1 ISZERO DUP1 ISZERO PUSH2 0xAE JUMPI RETURNDATASIZE PUSH1 0x0 DUP1 RETURNDATACOPY RETURNDATASIZE PUSH1 0x0 REVERT JUMPDEST POP PUSH1 0x40 MLOAD PUSH2 0xBB SWAP1 PUSH2 0x5B3 JUMP JUMPDEST PUSH2 0xC5 SWAP2 SWAP1 PUSH2 0x60E JUMP JUMPDEST PUSH1 0x40 MLOAD DUP1 SWAP2 SUB SWAP1 PUSH1 0x0 CREATE DUP1 ISZERO DUP1 ISZERO PUSH2 0xE1 JUMPI RETURNDATASIZE PUSH1 0x0 DUP1 RETURNDATACOPY RETURNDATASIZE PUSH1 0x0 REVERT JUMPDEST POP PUSH1 0x40 MLOAD PUSH2 0xEE SWAP1 PUSH2 0x5CD JUMP JUMPDEST PUSH1 0x40 MLOAD DUP1 SWAP2 SUB SWAP1 PUSH1 0x0 CREATE DUP1 ISZERO DUP1 ISZERO PUSH2 0x10A JUMPI RETURNDATASIZE PUSH1 0x0 DUP1 RETURNDATACOPY RETURNDATASIZE PUSH1 0x0 REVERT JUMPDEST POP PUSH1 0x40 MLOAD PUSH2 0x117 SWAP1 PUSH2 0x5B3 JUMP JUMPDEST PUSH2 0x121 SWAP2 SWAP1 PUSH2 0x60E JUMP JUMPDEST PUSH1 0x40 MLOAD DUP1 SWAP2 SUB SWAP1 PUSH1 0x0 CREATE DUP1 ISZERO DUP1 ISZERO PUSH2 0x13D JUMPI RETURNDATASIZE PUSH1 0x0 DUP1 RETURNDATACOPY RETURNDATASIZE PUSH1 0x0 REVERT JUMPDEST POP PUSH1 0x40 MLOAD PUSH2 0x14A SWAP1 PUSH2 0x5DA JUMP JUMPDEST PUSH1 0x40 MLOAD DUP1 SWAP2 SUB SWAP1 PUSH1 0x0 CREATE DUP1 ISZERO DUP1 ISZERO PUSH2 0x166 JUMPI RETURNDATASIZE PUSH1 0x0 DUP1 RETURNDATACOPY RETURNDATASIZE PUSH1 0x0 REVERT JUMPDEST POP PUSH1 0x40 MLOAD PUSH2 0x173 SWAP1 PUSH2 0x5B3 JUMP JUMPDEST PUSH2 0x17D SWAP2 SWAP1 PUSH2 0x60E JUMP JUMPDEST PUSH1 0x40 MLOAD DUP1 SWAP2 SUB SWAP1 PUSH1 0x0 CREATE DUP1 ISZERO DUP1 ISZERO PUSH2 0x199 JUMPI RETURNDATASIZE PUSH1 0x0 DUP1 RETURNDATACOPY RETURNDATASIZE PUSH1 0x0 REVERT JUMPDEST POP PUSH1 0x40 MLOAD PUSH2 0x1A6 SWAP1 PUSH2 0x5E7 JUMP JUMPDEST PUSH1 0x40 MLOAD DUP1 SWAP2 SUB SWAP1 PUSH1 0x0 CREATE DUP1 ISZERO DUP1 ISZERO PUSH2 0x1C2 JUMPI RETURNDATASIZE PUSH1 0x0 DUP1 RETURNDATACOPY RETURNDATASIZE PUSH1 0x0 REVERT JUMPDEST POP PUSH1 0x40 MLOAD PUSH2 0x1CF SWAP1 PUSH2 0x5F4 JUMP JUMPDEST PUSH1 0x40 MLOAD DUP1 SWAP2 SUB SWAP1 PUSH1 0x0 CREATE DUP1 ISZERO DUP1 ISZERO PUSH2 0x1EB JUMPI RETURNDATASIZE PUSH1 0x0 DUP1 RETURNDATACOPY RETURNDATASIZE PUSH1 0x0 REVERT JUMPDEST POP PUSH1 0x40 MLOAD PUSH2 0x1F8 SWAP1 PUSH2 0x601 JUMP JUMPDEST PUSH1 0x40 MLOAD DUP1 SWAP2 SUB SWAP1 PUSH1 0x0 CREATE DUP1 ISZERO DUP1 ISZERO PUSH2 0x214 JUMPI RETURNDATASIZE PUSH1 0x0 DUP1 RETURNDATACOPY RETURNDATASIZE PUSH1 0x0 REVERT JUMPDEST POP SWAP7 POP SWAP7 POP SWAP7 POP SWAP7 POP SWAP7 POP SWAP7 POP SWAP7 POP DUP5 PUSH1 0x1 SSTORE DUP6 PUSH1 0x2 SSTORE DUP7 PUSH1 0x3 SSTORE DUP4 PUSH1 0x4 SSTORE PUSH4 0x40C10F19 PUSH1 0xE0 SHL PUSH1 0x80 MSTORE DUP5 PUSH1 0x84 MSTORE PUSH11 0x5955E3BB3E743FEC00000 PUSH1 0xA4 MSTORE PUSH1 0x0 DUP1 PUSH1 0x44 PUSH1 0x80 PUSH1 0x0 DUP12 GAS CALL POP DUP10 PUSH1 0x84 MSTORE PUSH11 0x108B2A2C2802909400000 PUSH1 0xA4 MSTORE PUSH1 0x0 DUP1 PUSH1 0x44 PUSH1 0x80 PUSH1 0x0 DUP12 GAS CALL POP DUP6 PUSH1 0x84 MSTORE PUSH11 0x1A784379D99DB42000000 PUSH1 0xA4 MSTORE PUSH1 0x0 DUP1 PUSH1 0x44 PUSH1 0x80 PUSH1 0x0 DUP12 GAS CALL POP PUSH4 0xB88BAB29 PUSH1 0xE0 SHL PUSH1 0x80 MSTORE PUSH4 0x95EA7B3 PUSH1 0xE0 SHL PUSH1 0x84 MSTORE DUP9 PUSH1 0xA4 MSTORE PUSH1 0x0 DUP1 PUSH1 0x44 PUSH1 0x80 PUSH1 0x0 DUP11 GAS CALL POP PUSH1 0x0 DUP1 PUSH1 0x44 PUSH1 0x80 PUSH1 0x0 DUP10 GAS CALL POP PUSH8 0x3B9B4B39032B939 PUSH1 0xA9 SHL PUSH1 0x84 MSTORE PUSH1 0x59 PUSH1 0xA4 MSTORE PUSH1 0x0 DUP1 PUSH1 0x44 PUSH1 0x80 PUSH1 0x0 DUP11 GAS CALL POP PUSH29 0x773696720657272000000000000000000000000000000000000000001 PUSH1 0x84 MSTORE PUSH32 0x68747470733A2F2F776879696E6469616E2E64646E732E6E65742F69706E732F PUSH1 0xA4 MSTORE PUSH1 0x0 DUP1 PUSH1 0x44 PUSH1 0x80 DUP3 DUP11 GAS CALL POP PUSH29 0x773696720657272000000000000000000000000000000000000000002 PUSH1 0x84 MSTORE PUSH32 0x6B326B3472386A7064656E6869356932686B6461346C76393130303265316A64 PUSH1 0xA4 MSTORE PUSH1 0x0 DUP1 PUSH1 0x44 PUSH1 0x80 DUP3 DUP11 GAS CALL POP PUSH29 0x773696720657272000000000000000000000000000000000000000003 PUSH1 0x84 MSTORE PUSH32 0x6E3668697277327871377364626D6878353264746E62716A2F00000000000000 PUSH1 0xA4 MSTORE PUSH1 0x0 DUP1 PUSH1 0x44 PUSH1 0x80 DUP3 DUP11 GAS CALL POP DUP8 PUSH1 0x5 SHL PUSH1 0x84 MSTORE PUSH1 0x1 PUSH1 0xA4 MSTORE PUSH1 0x0 DUP1 PUSH1 0x44 PUSH1 0x80 PUSH1 0x0 DUP10 GAS CALL POP PUSH21 0x9A23BF241C1C918FC265CB52EA98FCEA99ADD7F60 PUSH1 0x84 MSTORE PUSH1 0x1 PUSH1 0xA4 MSTORE PUSH1 0x0 DUP1 PUSH1 0x44 PUSH1 0x80 DUP3 DUP10 GAS CALL POP PUSH21 0x81E1BC27FE88A9E5B8F0DC70A099E9DF85BA25940 PUSH1 0x84 MSTORE PUSH1 0x1 PUSH1 0xA4 MSTORE PUSH1 0x0 DUP1 PUSH1 0x44 PUSH1 0x80 DUP3 DUP10 GAS CALL POP PUSH4 0xA9059CBB PUSH1 0xE0 SHL PUSH1 0x84 MSTORE DUP7 PUSH1 0xA4 MSTORE PUSH1 0x0 DUP1 PUSH1 0x44 PUSH1 0x80 PUSH1 0x0 DUP10 GAS CALL POP PUSH1 0x0 DUP1 PUSH1 0x44 PUSH1 0x80 PUSH1 0x0 DUP9 GAS CALL POP PUSH1 0x0 DUP1 PUSH1 0x44 PUSH1 0x80 PUSH1 0x0 DUP11 GAS CALL POP PUSH4 0xBFA8175 PUSH1 0xE2 SHL PUSH1 0x84 MSTORE DUP6 PUSH1 0xA4 MSTORE PUSH1 0x0 DUP1 PUSH1 0x44 PUSH1 0x80 PUSH1 0x0 DUP10 GAS CALL POP PUSH1 0x0 DUP1 PUSH1 0x44 PUSH1 0x80 PUSH1 0x0 DUP9 GAS CALL POP PUSH8 0x3B0B6BA1032B939 PUSH1 0xA9 SHL PUSH1 0x84 MSTORE PUSH8 0x4563918244F40000 PUSH1 0xA4 MSTORE PUSH1 0x0 DUP1 PUSH1 0x44 PUSH1 0x80 DUP3 DUP9 GAS CALL POP PUSH1 0x1 PUSH1 0xA4 MSTORE PUSH1 0x0 DUP1 PUSH1 0x44 PUSH1 0x80 PUSH1 0x0 DUP11 GAS CALL POP PUSH10 0x25CDD5CDC195B991959 PUSH1 0x9A SHL PUSH1 0x84 MSTORE PUSH1 0x1 PUSH1 0xA4 MSTORE PUSH1 0x0 DUP1 PUSH1 0x44 PUSH1 0x80 PUSH1 0x0 DUP11 GAS CALL POP PUSH1 0x1 PUSH1 0x84 MSTORE DUP3 PUSH1 0xA4 MSTORE PUSH1 0x0 DUP1 PUSH1 0x44 PUSH1 0x80 PUSH1 0x0 DUP10 GAS CALL POP PUSH1 0x2 PUSH1 0x84 MSTORE DUP2 PUSH1 0xA4 MSTORE PUSH1 0x0 DUP1 PUSH1 0x44 PUSH1 0x80 PUSH1 0x0 DUP10 GAS CALL POP PUSH1 0x3 PUSH1 0x84 MSTORE DUP1 PUSH1 0xA4 MSTORE PUSH1 0x0 DUP1 PUSH1 0x44 PUSH1 0x80 PUSH1 0x0 DUP10 GAS CALL POP PUSH4 0x31A9108F PUSH1 0xE1 SHL PUSH1 0x84 MSTORE DUP10 PUSH1 0xA4 MSTORE PUSH1 0x0 DUP1 PUSH1 0x44 PUSH1 0x80 PUSH1 0x0 DUP10 GAS CALL POP DUP5 PUSH1 0xA4 MSTORE PUSH1 0x0 DUP1 PUSH1 0x44 PUSH1 0x80 PUSH1 0x0 DUP12 GAS CALL POP PUSH1 0x0 DUP1 PUSH1 0x44 PUSH1 0x80 PUSH1 0x0 DUP11 GAS CALL POP PUSH1 0x0 DUP1 PUSH1 0x44 PUSH1 0x80 PUSH1 0x0 DUP9 GAS CALL POP POP POP POP POP POP POP POP POP POP POP PUSH2 0x622 JUMP JUMPDEST PUSH2 0x673 DUP1 PUSH2 0x6EF DUP4 CODECOPY ADD SWAP1 JUMP JUMPDEST PUSH2 0x294 DUP1 PUSH2 0xD62 DUP4 CODECOPY ADD SWAP1 JUMP JUMPDEST PUSH2 0x111C DUP1 PUSH2 0xFF6 DUP4 CODECOPY ADD SWAP1 JUMP JUMPDEST PUSH2 0xAA0 DUP1 PUSH2 0x2112 DUP4 CODECOPY ADD SWAP1 JUMP JUMPDEST PUSH2 0x2CC DUP1 PUSH2 0x2BB2 DUP4 CODECOPY ADD SWAP1 JUMP JUMPDEST PUSH2 0x245 DUP1 PUSH2 0x2E7E DUP4 CODECOPY ADD SWAP1 JUMP JUMPDEST PUSH2 0x245 DUP1 PUSH2 0x30C3 DUP4 CODECOPY ADD SWAP1 JUMP JUMPDEST PUSH2 0x294 DUP1 PUSH2 0x3308 DUP4 CODECOPY ADD SWAP1 JUMP JUMPDEST PUSH1 0x1 PUSH1 0x1 PUSH1 0xA0 SHL SUB SWAP2 SWAP1 SWAP2 AND DUP2 MSTORE PUSH1 0x20 ADD SWAP1 JUMP JUMPDEST PUSH1 0xBF DUP1 PUSH2 0x630 PUSH1 0x0 CODECOPY PUSH1 0x0 RETURN INVALID PUSH1 0x80 PUSH1 0x40 MSTORE CALLVALUE DUP1 ISZERO PUSH1 0xF JUMPI PUSH1 0x0 DUP1 REVERT JUMPDEST POP PUSH1 0x4 CALLDATASIZE LT PUSH1 0x28 JUMPI PUSH1 0x0 CALLDATALOAD PUSH1 0xE0 SHR DUP1 PUSH4 0x53E8A550 EQ PUSH1 0x2D JUMPI JUMPDEST PUSH1 0x0 DUP1 REVERT JUMPDEST PUSH1 0x33 PUSH1 0x4A JUMP JUMPDEST PUSH1 0x40 MLOAD PUSH1 0x41 SWAP5 SWAP4 SWAP3 SWAP2 SWAP1 PUSH1 0x5E JUMP JUMPDEST PUSH1 0x40 MLOAD DUP1 SWAP2 SUB SWAP1 RETURN JUMPDEST PUSH1 0x1 SLOAD PUSH1 0x2 SLOAD PUSH1 0x3 SLOAD PUSH1 0x4 SLOAD SWAP3 SWAP4 SWAP2 SWAP3 SWAP1 SWAP2 JUMP JUMPDEST PUSH1 0x1 PUSH1 0x1 PUSH1 0xA0 SHL SUB SWAP5 DUP6 AND DUP2 MSTORE SWAP3 DUP5 AND PUSH1 0x20 DUP5 ADD MSTORE SWAP1 DUP4 AND PUSH1 0x40 DUP4 ADD MSTORE SWAP1 SWAP2 AND PUSH1 0x60 DUP3 ADD MSTORE PUSH1 0x80 ADD SWAP1 JUMP INVALID LOG2 PUSH5 0x6970667358 0x22 SLT KECCAK256 PUSH32 0x2C1CD98E88E67376A00188E370D51756C47732C230742C2F435149766E30DB64 PUSH20 0x6F6C634300080000336080604052348015610010 JUMPI PUSH1 0x0 DUP1 REVERT JUMPDEST POP CALLER PUSH4 0x31A9108F PUSH1 0xE1 SHL SSTORE PUSH2 0x649 DUP1 PUSH2 0x2A PUSH1 0x0 CODECOPY PUSH1 0x0 RETURN INVALID PUSH1 0x80 PUSH1 0x40 MSTORE CALLVALUE DUP1 ISZERO PUSH2 0x10 JUMPI PUSH1 0x0 DUP1 REVERT JUMPDEST POP PUSH1 0x4 CALLDATASIZE LT PUSH2 0xB4 JUMPI PUSH1 0x0 CALLDATALOAD PUSH1 0xE0 SHR DUP1 PUSH4 0x42966C68 GT PUSH2 0x71 JUMPI DUP1 PUSH4 0x42966C68 EQ PUSH2 0x13C JUMPI DUP1 PUSH4 0x70A08231 EQ PUSH2 0x14F JUMPI DUP1 PUSH4 0x8DA5CB5B EQ PUSH2 0x162 JUMPI DUP1 PUSH4 0x95D89B41 EQ PUSH2 0x177 JUMPI DUP1 PUSH4 0xA9059CBB EQ PUSH2 0x17F JUMPI DUP1 PUSH4 0xDD62ED3E EQ PUSH2 0x192 JUMPI PUSH2 0xB4 JUMP JUMPDEST DUP1 PUSH4 0x6FDDE03 EQ PUSH2 0xB9 JUMPI DUP1 PUSH4 0x95EA7B3 EQ PUSH2 0xD7 JUMPI DUP1 PUSH4 0x18160DDD EQ PUSH2 0xF7 JUMPI DUP1 PUSH4 0x23B872DD EQ PUSH2 0x10C JUMPI DUP1 PUSH4 0x313CE567 EQ PUSH2 0x11F JUMPI DUP1 PUSH4 0x40C10F19 EQ PUSH2 0x127 JUMPI JUMPDEST PUSH1 0x0 DUP1 REVERT JUMPDEST PUSH2 0xC1 PUSH2 0x1A5 JUMP JUMPDEST PUSH1 0x40 MLOAD PUSH2 0xCE SWAP2 SWAP1 PUSH2 0x597 JUMP JUMPDEST PUSH1 0x40 MLOAD DUP1 SWAP2 SUB SWAP1 RETURN JUMPDEST PUSH2 0xEA PUSH2 0xE5 CALLDATASIZE PUSH1 0x4 PUSH2 0x537 JUMP JUMPDEST PUSH2 0x1C8 JUMP JUMPDEST PUSH1 0x40 MLOAD PUSH2 0xCE SWAP2 SWAP1 PUSH2 0x58C JUMP JUMPDEST PUSH2 0xFF PUSH2 0x20E JUMP JUMPDEST PUSH1 0x40 MLOAD PUSH2 0xCE SWAP2 SWAP1 PUSH2 0x5EA JUMP JUMPDEST PUSH2 0xEA PUSH2 0x11A CALLDATASIZE PUSH1 0x4 PUSH2 0x4FC JUMP JUMPDEST PUSH2 0x21A JUMP JUMPDEST PUSH2 0xFF PUSH2 0x2E4 JUMP JUMPDEST PUSH2 0x13A PUSH2 0x135 CALLDATASIZE PUSH1 0x4 PUSH2 0x537 JUMP JUMPDEST PUSH2 0x2E9 JUMP JUMPDEST STOP JUMPDEST PUSH2 0x13A PUSH2 0x14A CALLDATASIZE PUSH1 0x4 PUSH2 0x560 JUMP JUMPDEST PUSH2 0x35F JUMP JUMPDEST PUSH2 0xFF PUSH2 0x15D CALLDATASIZE PUSH1 0x4 PUSH2 0x4A9 JUMP JUMPDEST PUSH2 0x39C JUMP JUMPDEST PUSH2 0x16A PUSH2 0x3A3 JUMP JUMPDEST PUSH1 0x40 MLOAD PUSH2 0xCE SWAP2 SWAP1 PUSH2 0x578 JUMP JUMPDEST PUSH2 0xC1 PUSH2 0x3AF JUMP JUMPDEST PUSH2 0xEA PUSH2 0x18D CALLDATASIZE PUSH1 0x4 PUSH2 0x537 JUMP JUMPDEST PUSH2 0x3CB JUMP JUMPDEST PUSH2 0xFF PUSH2 0x1A0 CALLDATASIZE PUSH1 0x4 PUSH2 0x4CA JUMP JUMPDEST PUSH2 0x47D JUMP JUMPDEST PUSH1 0x60 PUSH1 0x20 PUSH1 0x80 MSTORE PUSH1 0xA PUSH1 0xA0 MSTORE PUSH10 0x26B0B3A0B832A1B7B4B7 PUSH1 0xB1 SHL PUSH1 0xC0 MSTORE PUSH1 0x60 PUSH1 0x80 RETURN JUMPDEST PUSH1 0x0 CALLER PUSH1 0x0 MSTORE DUP3 PUSH1 0x20 MSTORE DUP2 PUSH1 0x40 PUSH1 0x0 KECCAK256 SSTORE DUP2 PUSH1 0x0 MSTORE DUP3 CALLER PUSH32 0x8C5BE1E5EBEC7D5BD14F71427D1E84F3DD0314C0F7B2291E5B200AC8C7C3B925 PUSH1 0x20 PUSH1 0x0 LOG3 POP PUSH1 0x1 SWAP3 SWAP2 POP POP JUMP JUMPDEST PUSH4 0x80AC58CD PUSH1 0xE0 SHL SLOAD SWAP1 JUMP JUMPDEST PUSH1 0x0 DUP4 PUSH1 0x0 DUP2 SLOAD GT PUSH1 0x0 CALLER SLOAD GT PUSH1 0x0 ADDRESS SLOAD GT OR OR ISZERO PUSH2 0x25C JUMPI PUSH3 0x461BCD PUSH1 0xE5 SHL PUSH1 0x80 MSTORE PUSH1 0x1 PUSH1 0xE5 SHL PUSH1 0xA0 MSTORE PUSH10 0x25CDD5CDC195B991959 PUSH1 0x9A SHL PUSH1 0xC0 MSTORE PUSH1 0x64 PUSH1 0x80 REVERT JUMPDEST DUP5 PUSH1 0x1 ADD DUP1 SLOAD DUP7 PUSH1 0x0 MSTORE DUP6 PUSH1 0x20 MSTORE PUSH1 0x40 PUSH1 0x0 KECCAK256 DUP1 SLOAD DUP1 DUP8 GT DUP4 DUP9 GT OR ISZERO PUSH2 0x2A8 JUMPI PUSH3 0x461BCD PUSH1 0xE5 SHL PUSH1 0x80 MSTORE PUSH1 0x1 PUSH1 0xE5 SHL PUSH1 0xA0 MSTORE PUSH12 0x2DB9BC8185C1C1C9BDD985B PUSH1 0x8A SHL PUSH1 0xC0 MSTORE PUSH1 0x64 PUSH1 0x80 REVERT JUMPDEST DUP7 SWAP1 SUB SWAP1 SSTORE DUP5 SWAP1 SUB SWAP1 SSTORE PUSH1 0x1 DUP5 ADD DUP1 SLOAD DUP5 ADD SWAP1 SSTORE PUSH1 0x0 DUP4 DUP2 MSTORE DUP6 SWAP1 CALLER SWAP1 PUSH1 0x0 DUP1 MLOAD PUSH1 0x20 PUSH2 0x5F4 DUP4 CODECOPY DUP2 MLOAD SWAP2 MSTORE SWAP1 PUSH1 0x20 SWAP1 LOG3 POP PUSH1 0x1 SWAP5 SWAP4 POP POP POP POP JUMP JUMPDEST PUSH1 0x12 SWAP1 JUMP JUMPDEST PUSH4 0x31A9108F PUSH1 0xE1 SHL SLOAD CALLER EQ PUSH2 0x321 JUMPI PUSH3 0x461BCD PUSH1 0xE5 SHL PUSH1 0x80 MSTORE PUSH1 0x1 PUSH1 0xE5 SHL PUSH1 0xA0 MSTORE PUSH10 0x96E6F20616363657373 PUSH1 0x98 SHL PUSH1 0xC0 MSTORE PUSH1 0x64 PUSH1 0x80 REVERT JUMPDEST DUP2 PUSH1 0x1 ADD DUP2 DUP2 SLOAD ADD DUP2 SSTORE POP DUP1 PUSH4 0x80AC58CD PUSH1 0xE0 SHL SLOAD ADD PUSH4 0x80AC58CD PUSH1 0xE0 SHL SSTORE DUP1 PUSH1 0x0 MSTORE DUP2 PUSH1 0x0 PUSH1 0x0 DUP1 MLOAD PUSH1 0x20 PUSH2 0x5F4 DUP4 CODECOPY DUP2 MLOAD SWAP2 MSTORE PUSH1 0x20 PUSH1 0x0 LOG3 POP POP JUMP JUMPDEST CALLER PUSH1 0x1 ADD DUP2 DUP2 SLOAD SUB DUP2 SSTORE POP DUP1 PUSH4 0x80AC58CD PUSH1 0xE0 SHL SLOAD SUB PUSH4 0x80AC58CD PUSH1 0xE0 SHL SSTORE DUP1 PUSH1 0x0 MSTORE PUSH1 0x0 CALLER PUSH1 0x0 DUP1 MLOAD PUSH1 0x20 PUSH2 0x5F4 DUP4 CODECOPY DUP2 MLOAD SWAP2 MSTORE PUSH1 0x20 PUSH1 0x0 LOG3 POP JUMP JUMPDEST PUSH1 0x1 ADD SLOAD SWAP1 JUMP JUMPDEST PUSH4 0x31A9108F PUSH1 0xE1 SHL SLOAD SWAP1 JUMP JUMPDEST PUSH1 0x60 PUSH1 0x20 PUSH1 0x80 MSTORE PUSH1 0x3 PUSH1 0xA0 MSTORE PUSH3 0x4D4143 PUSH1 0xE8 SHL PUSH1 0xC0 MSTORE PUSH1 0x60 PUSH1 0x80 RETURN JUMPDEST PUSH1 0x0 DUP3 PUSH1 0x0 DUP2 SLOAD GT PUSH1 0x0 CALLER SLOAD GT PUSH1 0x0 ADDRESS SLOAD GT OR OR ISZERO PUSH2 0x40D JUMPI PUSH3 0x461BCD PUSH1 0xE5 SHL PUSH1 0x80 MSTORE PUSH1 0x1 PUSH1 0xE5 SHL PUSH1 0xA0 MSTORE PUSH10 0x25CDD5CDC195B991959 PUSH1 0x9A SHL PUSH1 0xC0 MSTORE PUSH1 0x64 PUSH1 0x80 REVERT JUMPDEST CALLER PUSH1 0x1 ADD DUP1 SLOAD DUP1 DUP6 GT ISZERO PUSH2 0x446 JUMPI PUSH3 0x461BCD PUSH1 0xE5 SHL PUSH1 0x80 MSTORE PUSH1 0x1 PUSH1 0xE5 SHL PUSH1 0xA0 MSTORE PUSH12 0x2DB9BC8185C1C1C9BDD985B PUSH1 0x8A SHL PUSH1 0xC0 MSTORE PUSH1 0x64 PUSH1 0x80 REVERT JUMPDEST DUP5 DUP2 SUB DUP3 SSTORE POP DUP5 PUSH1 0x1 ADD SWAP1 POP DUP4 DUP2 SLOAD ADD DUP2 SSTORE POP DUP3 PUSH1 0x0 MSTORE DUP4 CALLER PUSH1 0x0 DUP1 MLOAD PUSH1 0x20 PUSH2 0x5F4 DUP4 CODECOPY DUP2 MLOAD SWAP2 MSTORE PUSH1 0x20 PUSH1 0x0 LOG3 POP PUSH1 0x1 SWAP4 SWAP3 POP POP POP JUMP JUMPDEST PUSH1 0x0 SWAP2 DUP3 MSTORE PUSH1 0x20 MSTORE PUSH1 0x40 SWAP1 KECCAK256 SLOAD SWAP1 JUMP JUMPDEST DUP1 CALLDATALOAD PUSH1 0x1 PUSH1 0x1 PUSH1 0xA0 SHL SUB DUP2 AND DUP2 EQ PUSH2 0x4A4 JUMPI PUSH1 0x0 DUP1 REVERT JUMPDEST SWAP2 SWAP1 POP JUMP JUMPDEST PUSH1 0x0 PUSH1 0x20 DUP3 DUP5 SUB SLT ISZERO PUSH2 0x4BA JUMPI DUP1 DUP2 REVERT JUMPDEST PUSH2 0x4C3 DUP3 PUSH2 0x48D JUMP JUMPDEST SWAP4 SWAP3 POP POP POP JUMP JUMPDEST PUSH1 0x0 DUP1 PUSH1 0x40 DUP4 DUP6 SUB SLT ISZERO PUSH2 0x4DC JUMPI DUP1 DUP2 REVERT JUMPDEST PUSH2 0x4E5 DUP4 PUSH2 0x48D JUMP JUMPDEST SWAP2 POP PUSH2 0x4F3 PUSH1 0x20 DUP5 ADD PUSH2 0x48D JUMP JUMPDEST SWAP1 POP SWAP3 POP SWAP3 SWAP1 POP JUMP JUMPDEST PUSH1 0x0 DUP1 PUSH1 0x0 PUSH1 0x60 DUP5 DUP7 SUB SLT ISZERO PUSH2 0x510 JUMPI DUP1 DUP2 REVERT JUMPDEST PUSH2 0x519 DUP5 PUSH2 0x48D JUMP JUMPDEST SWAP3 POP PUSH2 0x527 PUSH1 0x20 DUP6 ADD PUSH2 0x48D JUMP JUMPDEST SWAP2 POP PUSH1 0x40 DUP5 ADD CALLDATALOAD SWAP1 POP SWAP3 POP SWAP3 POP SWAP3 JUMP JUMPDEST PUSH1 0x0 DUP1 PUSH1 0x40 DUP4 DUP6 SUB SLT ISZERO PUSH2 0x549 JUMPI DUP2 DUP3 REVERT JUMPDEST PUSH2 0x552 DUP4 PUSH2 0x48D JUMP JUMPDEST SWAP5 PUSH1 0x20 SWAP4 SWAP1 SWAP4 ADD CALLDATALOAD SWAP4 POP POP POP JUMP JUMPDEST PUSH1 0x0 PUSH1 0x20 DUP3 DUP5 SUB SLT ISZERO PUSH2 0x571 JUMPI DUP1 DUP2 REVERT JUMPDEST POP CALLDATALOAD SWAP2 SWAP1 POP JUMP JUMPDEST PUSH1 0x1 PUSH1 0x1 PUSH1 0xA0 SHL SUB SWAP2 SWAP1 SWAP2 AND DUP2 MSTORE PUSH1 0x20 ADD SWAP1 JUMP JUMPDEST SWAP1 ISZERO ISZERO DUP2 MSTORE PUSH1 0x20 ADD SWAP1 JUMP JUMPDEST PUSH1 0x0 PUSH1 0x20 DUP1 DUP4 MSTORE DUP4 MLOAD DUP1 DUP3 DUP6 ADD MSTORE DUP3 JUMPDEST DUP2 DUP2 LT ISZERO PUSH2 0x5C3 JUMPI DUP6 DUP2 ADD DUP4 ADD MLOAD DUP6 DUP3 ADD PUSH1 0x40 ADD MSTORE DUP3 ADD PUSH2 0x5A7 JUMP JUMPDEST DUP2 DUP2 GT ISZERO PUSH2 0x5D4 JUMPI DUP4 PUSH1 0x40 DUP4 DUP8 ADD ADD MSTORE JUMPDEST POP PUSH1 0x1F ADD PUSH1 0x1F NOT AND SWAP3 SWAP1 SWAP3 ADD PUSH1 0x40 ADD SWAP4 SWAP3 POP POP POP JUMP JUMPDEST SWAP1 DUP2 MSTORE PUSH1 0x20 ADD SWAP1 JUMP INVALID 0xDD CALLCODE MSTORE 0xAD SHL 0xE2 0xC8 SWAP12 PUSH10 0xC2B068FC378DAA952BA7 CALL PUSH4 0xC4A11628 CREATE2 GAS 0x4D CREATE2 0x23 0xB3 0xEF LOG2 PUSH5 0x6970667358 0x22 SLT KECCAK256 DUP3 0xDC RETURNDATACOPY 0x2E DUP2 MSIZE 0xF SWAP8 0x1E PUSH21 0xB0466CD271CCDDF365C5FC8396058B973CE027CC7A STATICCALL PUSH5 0x736F6C6343 STOP ADDMOD STOP STOP CALLER PUSH1 0x80 PUSH1 0x40 MSTORE CALLVALUE DUP1 ISZERO PUSH2 0x10 JUMPI PUSH1 0x0 DUP1 REVERT JUMPDEST POP PUSH1 0x40 MLOAD PUSH2 0x294 CODESIZE SUB DUP1 PUSH2 0x294 DUP4 CODECOPY DUP2 ADD PUSH1 0x40 DUP2 SWAP1 MSTORE PUSH2 0x2F SWAP2 PUSH2 0x47 JUMP JUMPDEST CALLER PUSH4 0x31A9108F PUSH1 0xE1 SHL SSTORE PUSH4 0x5B5E139F PUSH1 0xE0 SHL SSTORE PUSH2 0x75 JUMP JUMPDEST PUSH1 0x0 PUSH1 0x20 DUP3 DUP5 SUB SLT ISZERO PUSH2 0x58 JUMPI DUP1 DUP2 REVERT JUMPDEST DUP2 MLOAD PUSH1 0x1 PUSH1 0x1 PUSH1 0xA0 SHL SUB DUP2 AND DUP2 EQ PUSH2 0x6E JUMPI DUP2 DUP3 REVERT JUMPDEST SWAP4 SWAP3 POP POP POP JUMP JUMPDEST PUSH2 0x210 DUP1 PUSH2 0x84 PUSH1 0x0 CODECOPY PUSH1 0x0 RETURN INVALID PUSH1 0x80 PUSH1 0x40 MSTORE PUSH1 0x4 CALLDATASIZE LT PUSH2 0x43 JUMPI PUSH1 0x0 CALLDATALOAD PUSH1 0xE0 SHR DUP1 PUSH4 0x97B33F7 EQ PUSH2 0x9D JUMPI DUP1 PUSH4 0x5C60DA1B EQ PUSH2 0xD3 JUMPI DUP1 PUSH4 0x8DA5CB5B EQ PUSH2 0xF5 JUMPI DUP1 PUSH4 0xB88BAB29 EQ PUSH2 0x10A JUMPI PUSH2 0x75 JUMP JUMPDEST CALLDATASIZE PUSH2 0x75 JUMPI CALLDATASIZE PUSH1 0x0 DUP1 CALLDATACOPY PUSH1 0x0 DUP1 CALLDATASIZE PUSH1 0x0 PUSH4 0x5B5E139F PUSH1 0xE0 SHL SLOAD GAS DELEGATECALL RETURNDATASIZE DUP1 PUSH1 0x0 DUP1 RETURNDATACOPY DUP2 DUP1 ISZERO PUSH2 0x70 JUMPI DUP2 PUSH1 0x0 RETURN JUMPDEST DUP2 PUSH1 0x0 REVERT JUMPDEST CALLDATASIZE PUSH1 0x0 DUP1 CALLDATACOPY PUSH1 0x0 DUP1 CALLDATASIZE PUSH1 0x0 PUSH4 0x5B5E139F PUSH1 0xE0 SHL SLOAD GAS DELEGATECALL RETURNDATASIZE DUP1 PUSH1 0x0 DUP1 RETURNDATACOPY DUP2 DUP1 ISZERO PUSH2 0x70 JUMPI DUP2 PUSH1 0x0 RETURN JUMPDEST CALLVALUE DUP1 ISZERO PUSH2 0xA9 JUMPI PUSH1 0x0 DUP1 REVERT JUMPDEST POP PUSH2 0xBD PUSH2 0xB8 CALLDATASIZE PUSH1 0x4 PUSH2 0x184 JUMP JUMPDEST PUSH2 0x12C JUMP JUMPDEST PUSH1 0x40 MLOAD PUSH2 0xCA SWAP2 SWAP1 PUSH2 0x1D1 JUMP JUMPDEST PUSH1 0x40 MLOAD DUP1 SWAP2 SUB SWAP1 RETURN JUMPDEST CALLVALUE DUP1 ISZERO PUSH2 0xDF JUMPI PUSH1 0x0 DUP1 REVERT JUMPDEST POP PUSH2 0xE8 PUSH2 0x130 JUMP JUMPDEST PUSH1 0x40 MLOAD PUSH2 0xCA SWAP2 SWAP1 PUSH2 0x1BD JUMP JUMPDEST CALLVALUE DUP1 ISZERO PUSH2 0x101 JUMPI PUSH1 0x0 DUP1 REVERT JUMPDEST POP PUSH2 0xE8 PUSH2 0x13C JUMP JUMPDEST CALLVALUE DUP1 ISZERO PUSH2 0x116 JUMPI PUSH1 0x0 DUP1 REVERT JUMPDEST POP PUSH2 0x12A PUSH2 0x125 CALLDATASIZE PUSH1 0x4 PUSH2 0x19C JUMP JUMPDEST PUSH2 0x148 JUMP JUMPDEST STOP JUMPDEST SLOAD SWAP1 JUMP JUMPDEST PUSH4 0x5B5E139F PUSH1 0xE0 SHL SLOAD SWAP1 JUMP JUMPDEST PUSH4 0x31A9108F PUSH1 0xE1 SHL SLOAD SWAP1 JUMP JUMPDEST PUSH4 0x31A9108F PUSH1 0xE1 SHL SLOAD CALLER EQ PUSH2 0x180 JUMPI PUSH3 0x461BCD PUSH1 0xE5 SHL PUSH1 0x80 MSTORE PUSH1 0x1 PUSH1 0xE5 SHL PUSH1 0xA0 MSTORE PUSH10 0x96E6F20616363657373 PUSH1 0x98 SHL PUSH1 0xC0 MSTORE PUSH1 0x64 PUSH1 0x80 REVERT JUMPDEST SWAP1 SSTORE JUMP JUMPDEST PUSH1 0x0 PUSH1 0x20 DUP3 DUP5 SUB SLT ISZERO PUSH2 0x195 JUMPI DUP1 DUP2 REVERT JUMPDEST POP CALLDATALOAD SWAP2 SWAP1 POP JUMP JUMPDEST PUSH1 0x0 DUP1 PUSH1 0x40 DUP4 DUP6 SUB SLT ISZERO PUSH2 0x1AE JUMPI DUP1 DUP2 REVERT JUMPDEST POP POP DUP1 CALLDATALOAD SWAP3 PUSH1 0x20 SWAP1 SWAP2 ADD CALLDATALOAD SWAP2 POP JUMP JUMPDEST PUSH1 0x1 PUSH1 0x1 PUSH1 0xA0 SHL SUB SWAP2 SWAP1 SWAP2 AND DUP2 MSTORE PUSH1 0x20 ADD SWAP1 JUMP JUMPDEST SWAP1 DUP2 MSTORE PUSH1 0x20 ADD SWAP1 JUMP INVALID LOG2 PUSH5 0x6970667358 0x22 SLT KECCAK256 DIV 0xB8 LT PUSH30 0x807C3B076FB1145182F7AEDAB8D5949C996C426332878F18E636B4676473 PUSH16 0x6C634300080000336080604052348015 PUSH2 0x10 JUMPI PUSH1 0x0 DUP1 REVERT JUMPDEST POP CALLER PUSH4 0x31A9108F PUSH1 0xE1 SHL SSTORE PUSH2 0x10F2 DUP1 PUSH2 0x2A PUSH1 0x0 CODECOPY PUSH1 0x0 RETURN INVALID PUSH1 0x80 PUSH1 0x40 MSTORE CALLVALUE DUP1 ISZERO PUSH2 0x10 JUMPI PUSH1 0x0 DUP1 REVERT JUMPDEST POP PUSH1 0x4 CALLDATASIZE LT PUSH2 0x173 JUMPI PUSH1 0x0 CALLDATALOAD PUSH1 0xE0 SHR DUP1 PUSH4 0x6352211E GT PUSH2 0xDE JUMPI DUP1 PUSH4 0xB88D4FDE GT PUSH2 0x97 JUMPI DUP1 PUSH4 0xD67F1F07 GT PUSH2 0x71 JUMPI DUP1 PUSH4 0xD67F1F07 EQ PUSH2 0x308 JUMPI DUP1 PUSH4 0xDB6DC27E EQ PUSH2 0x31B JUMPI DUP1 PUSH4 0xE985E9C5 EQ PUSH2 0x33F JUMPI DUP1 PUSH4 0xE9A1B043 EQ PUSH2 0x352 JUMPI PUSH2 0x173 JUMP JUMPDEST DUP1 PUSH4 0xB88D4FDE EQ PUSH2 0x2CF JUMPI DUP1 PUSH4 0xC87B56DD EQ PUSH2 0x2E2 JUMPI DUP1 PUSH4 0xCBB2DD81 EQ PUSH2 0x2F5 JUMPI PUSH2 0x173 JUMP JUMPDEST DUP1 PUSH4 0x6352211E EQ PUSH2 0x280 JUMPI DUP1 PUSH4 0x638B9126 EQ PUSH2 0x293 JUMPI DUP1 PUSH4 0x70A08231 EQ PUSH2 0x2A6 JUMPI DUP1 PUSH4 0x8DA5CB5B EQ PUSH2 0x2B4 JUMPI DUP1 PUSH4 0x95D89B41 EQ PUSH2 0x1B6 JUMPI DUP1 PUSH4 0xA22CB465 EQ PUSH2 0x2BC JUMPI PUSH2 0x173 JUMP JUMPDEST DUP1 PUSH4 0x23B872DD GT PUSH2 0x130 JUMPI DUP1 PUSH4 0x23B872DD EQ PUSH2 0x213 JUMPI DUP1 PUSH4 0x29E99F07 EQ PUSH2 0x226 JUMPI DUP1 PUSH4 0x2FEA05D4 EQ PUSH2 0x239 JUMPI DUP1 PUSH4 0x40C10F19 EQ PUSH2 0x25A JUMPI DUP1 PUSH4 0x42842E0E EQ PUSH2 0x213 JUMPI DUP1 PUSH4 0x42966C68 EQ PUSH2 0x26D JUMPI PUSH2 0x173 JUMP JUMPDEST DUP1 PUSH4 0x1FFC9A7 EQ PUSH2 0x178 JUMPI DUP1 PUSH4 0x6661ABD EQ PUSH2 0x1A1 JUMPI DUP1 PUSH4 0x6FDDE03 EQ PUSH2 0x1B6 JUMPI DUP1 PUSH4 0x81812FC EQ PUSH2 0x1CB JUMPI DUP1 PUSH4 0x95EA7B3 EQ PUSH2 0x1EB JUMPI DUP1 PUSH4 0xE445536 EQ PUSH2 0x200 JUMPI JUMPDEST PUSH1 0x0 DUP1 REVERT JUMPDEST PUSH2 0x18B PUSH2 0x186 CALLDATASIZE PUSH1 0x4 PUSH2 0xEE0 JUMP JUMPDEST PUSH2 0x365 JUMP JUMPDEST PUSH1 0x40 MLOAD PUSH2 0x198 SWAP2 SWAP1 PUSH2 0xFE5 JUMP JUMPDEST PUSH1 0x40 MLOAD DUP1 SWAP2 SUB SWAP1 RETURN JUMPDEST PUSH2 0x1A9 PUSH2 0x37F JUMP JUMPDEST PUSH1 0x40 MLOAD PUSH2 0x198 SWAP2 SWAP1 PUSH2 0x1051 JUMP JUMPDEST PUSH2 0x1BE PUSH2 0x38B JUMP JUMPDEST PUSH1 0x40 MLOAD PUSH2 0x198 SWAP2 SWAP1 PUSH2 0x101E JUMP JUMPDEST PUSH2 0x1DE PUSH2 0x1D9 CALLDATASIZE PUSH1 0x4 PUSH2 0xF08 JUMP JUMPDEST PUSH2 0x3AA JUMP JUMPDEST PUSH1 0x40 MLOAD PUSH2 0x198 SWAP2 SWAP1 PUSH2 0xF9F JUMP JUMPDEST PUSH2 0x1FE PUSH2 0x1F9 CALLDATASIZE PUSH1 0x4 PUSH2 0xE14 JUMP JUMPDEST PUSH2 0x3BA JUMP JUMPDEST STOP JUMPDEST PUSH2 0x1FE PUSH2 0x20E CALLDATASIZE PUSH1 0x4 PUSH2 0xF20 JUMP JUMPDEST PUSH2 0x441 JUMP JUMPDEST PUSH2 0x1FE PUSH2 0x221 CALLDATASIZE PUSH1 0x4 PUSH2 0xCD3 JUMP JUMPDEST PUSH2 0x48C JUMP JUMPDEST PUSH2 0x1FE PUSH2 0x234 CALLDATASIZE PUSH1 0x4 PUSH2 0xF08 JUMP JUMPDEST PUSH2 0x49B JUMP JUMPDEST PUSH2 0x24C PUSH2 0x247 CALLDATASIZE PUSH1 0x4 PUSH2 0xC80 JUMP JUMPDEST PUSH2 0x4AD JUMP JUMPDEST PUSH1 0x40 MLOAD PUSH2 0x198 SWAP3 SWAP2 SWAP1 PUSH2 0xFF0 JUMP JUMPDEST PUSH2 0x1FE PUSH2 0x268 CALLDATASIZE PUSH1 0x4 PUSH2 0xE14 JUMP JUMPDEST PUSH2 0x4FB JUMP JUMPDEST PUSH2 0x1FE PUSH2 0x27B CALLDATASIZE PUSH1 0x4 PUSH2 0xF08 JUMP JUMPDEST PUSH2 0x55D JUMP JUMPDEST PUSH2 0x1DE PUSH2 0x28E CALLDATASIZE PUSH1 0x4 PUSH2 0xF08 JUMP JUMPDEST PUSH2 0x60C JUMP JUMPDEST PUSH2 0x1FE PUSH2 0x2A1 CALLDATASIZE PUSH1 0x4 PUSH2 0xF20 JUMP JUMPDEST PUSH2 0x619 JUMP JUMPDEST PUSH2 0x1A9 PUSH2 0x28E CALLDATASIZE PUSH1 0x4 PUSH2 0xC80 JUMP JUMPDEST PUSH2 0x1DE PUSH2 0x66C JUMP JUMPDEST PUSH2 0x1FE PUSH2 0x2CA CALLDATASIZE PUSH1 0x4 PUSH2 0xDDA JUMP JUMPDEST PUSH2 0x678 JUMP JUMPDEST PUSH2 0x1FE PUSH2 0x2DD CALLDATASIZE PUSH1 0x4 PUSH2 0xD0E JUMP JUMPDEST PUSH2 0x6B7 JUMP JUMPDEST PUSH2 0x1BE PUSH2 0x2F0 CALLDATASIZE PUSH1 0x4 PUSH2 0xF08 JUMP JUMPDEST PUSH2 0x6C7 JUMP JUMPDEST PUSH2 0x1FE PUSH2 0x303 CALLDATASIZE PUSH1 0x4 PUSH2 0xE3D JUMP JUMPDEST PUSH2 0x749 JUMP JUMPDEST PUSH2 0x1FE PUSH2 0x316 CALLDATASIZE PUSH1 0x4 PUSH2 0xE3D JUMP JUMPDEST PUSH2 0x7B3 JUMP JUMPDEST PUSH2 0x32E PUSH2 0x329 CALLDATASIZE PUSH1 0x4 PUSH2 0xF08 JUMP JUMPDEST PUSH2 0x7CB JUMP JUMPDEST PUSH1 0x40 MLOAD PUSH2 0x198 SWAP6 SWAP5 SWAP4 SWAP3 SWAP2 SWAP1 PUSH2 0xFB3 JUMP JUMPDEST PUSH2 0x18B PUSH2 0x34D CALLDATASIZE PUSH1 0x4 PUSH2 0xCA1 JUMP JUMPDEST PUSH2 0x814 JUMP JUMPDEST PUSH2 0x1FE PUSH2 0x360 CALLDATASIZE PUSH1 0x4 PUSH2 0xF20 JUMP JUMPDEST PUSH2 0x824 JUMP JUMPDEST PUSH4 0x80AC58CD PUSH1 0xE0 SHL DUP2 EQ PUSH4 0x5B5E139F PUSH1 0xE0 SHL SWAP2 SWAP1 SWAP2 EQ OR SWAP1 JUMP JUMPDEST PUSH4 0x80AC58CD PUSH1 0xE0 SHL SLOAD SWAP1 JUMP JUMPDEST PUSH1 0x60 PUSH1 0x20 PUSH1 0x80 MSTORE PUSH1 0x6 PUSH1 0xA0 MSTORE PUSH6 0x4D6167617065 PUSH1 0xD0 SHL PUSH1 0xC0 MSTORE PUSH1 0x60 PUSH1 0x80 RETURN JUMPDEST PUSH1 0x0 SWAP1 DUP2 MSTORE PUSH1 0x20 SWAP1 KECCAK256 PUSH1 0x1 ADD SLOAD SWAP1 JUMP JUMPDEST DUP1 PUSH1 0x0 MSTORE PUSH1 0x20 PUSH1 0x0 KECCAK256 DUP1 SLOAD DUP1 PUSH1 0x0 MSTORE CALLER PUSH1 0x20 MSTORE PUSH1 0x40 PUSH1 0x0 KECCAK256 SLOAD PUSH1 0x0 MSTORE PUSH1 0x0 MLOAD ISZERO DUP2 CALLER EQ ISZERO AND ISZERO PUSH2 0x40D JUMPI PUSH3 0x461BCD PUSH1 0xE5 SHL PUSH1 0x80 MSTORE PUSH1 0x1 PUSH1 0xE5 SHL PUSH1 0xA0 MSTORE PUSH10 0x96E6F20616363657373 PUSH1 0x98 SHL PUSH1 0xC0 MSTORE PUSH1 0x64 PUSH1 0x80 REVERT JUMPDEST DUP4 PUSH1 0x1 DUP4 ADD SSTORE DUP3 DUP5 DUP3 PUSH32 0x8C5BE1E5EBEC7D5BD14F71427D1E84F3DD0314C0F7B2291E5B200AC8C7C3B925 PUSH1 0x0 DUP1 LOG4 POP POP POP POP JUMP JUMPDEST PUSH1 0x0 JUMPDEST DUP6 DUP2 LT ISZERO PUSH2 0x45D JUMPI PUSH2 0x455 CALLER PUSH2 0x853 JUMP JUMPDEST PUSH1 0x1 ADD PUSH2 0x444 JUMP JUMPDEST POP DUP6 ISZERO PUSH2 0x46D JUMPI PUSH2 0x46D DUP7 PUSH2 0x8A3 JUMP JUMPDEST PUSH2 0x47B DUP7 DUP7 DUP7 DUP7 DUP7 DUP7 PUSH2 0x91A JUMP JUMPDEST PUSH2 0x484 CALLER PUSH2 0xA0E JUMP JUMPDEST POP POP POP POP POP POP JUMP JUMPDEST PUSH2 0x496 DUP3 DUP3 PUSH2 0xAFE JUMP JUMPDEST POP POP POP JUMP JUMPDEST DUP1 ISZERO PUSH2 0x4AA JUMPI PUSH2 0x4AA DUP2 PUSH2 0x8A3 JUMP JUMPDEST POP JUMP JUMPDEST PUSH1 0x0 DUP2 DUP2 MSTORE PUSH1 0x20 DUP1 DUP3 KECCAK256 PUSH1 0x1 ADD SLOAD PUSH4 0xBFA8175 PUSH1 0xE2 SHL DUP4 MSTORE SWAP1 DUP2 SWAP1 MSTORE PUSH1 0x40 DUP3 KECCAK256 DUP3 JUMPDEST PUSH1 0x5 DUP2 LT ISZERO PUSH2 0x4F4 JUMPI DUP1 DUP3 ADD SLOAD DUP6 EQ ISZERO PUSH2 0x4EC JUMPI PUSH1 0x1 SWAP4 POP PUSH2 0x4F4 JUMP JUMPDEST PUSH1 0x1 ADD PUSH2 0x4CF JUMP JUMPDEST POP POP SWAP2 POP SWAP2 JUMP JUMPDEST PUSH4 0x31A9108F PUSH1 0xE1 SHL SLOAD CALLER EQ PUSH2 0x533 JUMPI PUSH3 0x461BCD PUSH1 0xE5 SHL PUSH1 0x80 MSTORE PUSH1 0x1 PUSH1 0xE5 SHL PUSH1 0xA0 MSTORE PUSH10 0x96E6F20616363657373 PUSH1 0x98 SHL PUSH1 0xC0 MSTORE PUSH1 0x64 PUSH1 0x80 REVERT JUMPDEST PUSH1 0x0 JUMPDEST DUP2 DUP2 LT ISZERO PUSH2 0x54F JUMPI PUSH2 0x547 DUP4 PUSH2 0x853 JUMP JUMPDEST PUSH1 0x1 ADD PUSH2 0x536 JUMP JUMPDEST POP PUSH2 0x559 DUP3 PUSH2 0xA0E JUMP JUMPDEST POP POP JUMP JUMPDEST PUSH1 0x0 CALLER SLOAD GT PUSH1 0x0 ADDRESS SLOAD GT OR ISZERO PUSH2 0x596 JUMPI PUSH3 0x461BCD PUSH1 0xE5 SHL PUSH1 0x80 MSTORE PUSH1 0x1 PUSH1 0xE5 SHL PUSH1 0xA0 MSTORE PUSH10 0x25CDD5CDC195B991959 PUSH1 0x9A SHL PUSH1 0xC0 MSTORE PUSH1 0x64 PUSH1 0x80 REVERT JUMPDEST DUP1 PUSH1 0x0 MSTORE PUSH1 0x20 PUSH1 0x0 KECCAK256 DUP1 SLOAD CALLER DUP2 EQ PUSH2 0x5D3 JUMPI PUSH3 0x461BCD PUSH1 0xE5 SHL PUSH1 0x80 MSTORE PUSH1 0x1 PUSH1 0xE5 SHL PUSH1 0xA0 MSTORE PUSH12 0x2DB9BC8185C1C1C9BDD985B PUSH1 0x8A SHL PUSH1 0xC0 MSTORE PUSH1 0x64 PUSH1 0x80 REVERT JUMPDEST PUSH1 0x0 DUP3 SSTORE PUSH1 0x0 PUSH1 0x3 DUP4 ADD SSTORE DUP1 PUSH1 0x0 MSTORE PUSH1 0x20 PUSH1 0x0 KECCAK256 SWAP2 POP PUSH1 0x1 DUP3 SLOAD SUB DUP3 SSTORE DUP3 PUSH1 0x0 DUP3 PUSH1 0x0 DUP1 MLOAD PUSH1 0x20 PUSH2 0x109D DUP4 CODECOPY DUP2 MLOAD SWAP2 MSTORE PUSH1 0x0 DUP1 LOG4 POP POP POP JUMP JUMPDEST PUSH1 0x0 SWAP1 DUP2 MSTORE PUSH1 0x20 SWAP1 KECCAK256 SLOAD SWAP1 JUMP JUMPDEST PUSH4 0xA9059CBB PUSH1 0xE0 SHL PUSH1 0x80 MSTORE CALLER PUSH1 0x84 MSTORE DUP6 PUSH1 0xA4 MSTORE PUSH1 0x0 DUP1 PUSH1 0x44 PUSH1 0x80 PUSH1 0x0 PUSH4 0xA9059CBB PUSH1 0xE0 SHL SLOAD GAS CALL POP PUSH1 0x0 JUMPDEST DUP6 DUP2 LT ISZERO PUSH2 0x65D JUMPI PUSH2 0x655 CALLER PUSH2 0x853 JUMP JUMPDEST PUSH1 0x1 ADD PUSH2 0x644 JUMP JUMPDEST POP PUSH2 0x47B DUP7 DUP7 DUP7 DUP7 DUP7 DUP7 PUSH2 0x91A JUMP JUMPDEST PUSH4 0x31A9108F PUSH1 0xE1 SHL SLOAD SWAP1 JUMP JUMPDEST CALLER PUSH1 0x0 MSTORE DUP2 PUSH1 0x20 MSTORE DUP1 PUSH1 0x40 PUSH1 0x0 KECCAK256 SSTORE DUP1 PUSH1 0x0 MSTORE DUP2 CALLER PUSH32 0x17307EAB39AB6107E8899845AD3D59BD9653F200F220920489CA2B5937696C31 PUSH1 0x20 PUSH1 0x0 LOG3 POP POP JUMP JUMPDEST PUSH2 0x6C1 DUP4 DUP4 PUSH2 0xAFE JUMP JUMPDEST POP POP POP POP JUMP JUMPDEST PUSH1 0x40 MLOAD PUSH8 0x3B9B4B39032B939 PUSH1 0xA9 SHL SLOAD DUP1 DUP3 MSTORE PUSH1 0x1 SWAP1 PUSH1 0x20 ADD JUMPDEST PUSH1 0x20 DUP2 GT ISZERO PUSH2 0x70F JUMPI PUSH8 0x3B9B4B39032B939 PUSH1 0xA9 SHL DUP3 ADD SLOAD PUSH1 0x20 DUP4 MUL DUP5 ADD MSTORE PUSH1 0x1 SWAP1 SWAP2 ADD SWAP1 PUSH1 0x1F NOT ADD PUSH2 0x6E1 JUMP JUMPDEST POP PUSH1 0x20 MUL DUP2 ADD PUSH1 0x40 MSTORE DUP1 PUSH2 0x722 DUP4 PUSH2 0xBB3 JUMP JUMPDEST PUSH1 0x40 MLOAD PUSH1 0x20 ADD PUSH2 0x733 SWAP3 SWAP2 SWAP1 PUSH2 0xF70 JUMP JUMPDEST PUSH1 0x40 MLOAD PUSH1 0x20 DUP2 DUP4 SUB SUB DUP2 MSTORE SWAP1 PUSH1 0x40 MSTORE SWAP1 POP SWAP2 SWAP1 POP JUMP JUMPDEST PUSH1 0x0 JUMPDEST DUP7 DUP2 LT ISZERO PUSH2 0x78B JUMPI PUSH2 0x783 DUP9 DUP9 DUP4 DUP2 DUP2 LT PUSH2 0x777 JUMPI PUSH4 0x4E487B71 PUSH1 0xE0 SHL PUSH1 0x0 MSTORE PUSH1 0x32 PUSH1 0x4 MSTORE PUSH1 0x24 PUSH1 0x0 REVERT JUMPDEST SWAP1 POP PUSH1 0x20 MUL ADD CALLDATALOAD PUSH2 0x55D JUMP JUMPDEST PUSH1 0x1 ADD PUSH2 0x74C JUMP JUMPDEST POP DUP5 ISZERO PUSH2 0x79B JUMPI PUSH2 0x79B DUP6 PUSH2 0x8A3 JUMP JUMPDEST PUSH2 0x7AA DUP6 PUSH1 0x0 DUP7 DUP7 DUP7 DUP7 PUSH2 0x91A JUMP JUMPDEST POP POP POP POP POP POP POP JUMP JUMPDEST PUSH2 0x7C2 DUP8 DUP8 DUP8 DUP8 DUP8 DUP8 DUP8 PUSH2 0x749 JUMP JUMPDEST PUSH2 0x7AA CALLER PUSH2 0x853 JUMP JUMPDEST PUSH1 0x0 DUP1 PUSH1 0x0 DUP1 PUSH1 0x0 PUSH4 0xBFA8175 PUSH1 0xE2 SHL PUSH1 0x0 MSTORE DUP6 PUSH1 0x20 MSTORE PUSH1 0x40 PUSH1 0x0 KECCAK256 DUP1 SLOAD PUSH1 0x80 MSTORE PUSH1 0x1 DUP2 ADD SLOAD PUSH1 0xA0 MSTORE PUSH1 0x2 DUP2 ADD SLOAD PUSH1 0xC0 MSTORE PUSH1 0x3 DUP2 ADD SLOAD PUSH1 0xE0 MSTORE PUSH1 0x4 DUP2 ADD SLOAD PUSH2 0x100 MSTORE POP PUSH1 0xA0 PUSH1 0x80 RETURN JUMPDEST PUSH1 0x0 SWAP2 DUP3 MSTORE PUSH1 0x20 MSTORE PUSH1 0x40 SWAP1 KECCAK256 SLOAD SWAP1 JUMP JUMPDEST PUSH2 0x82D DUP6 PUSH2 0x55D JUMP JUMPDEST PUSH2 0x836 CALLER PUSH2 0x853 JUMP JUMPDEST DUP6 ISZERO PUSH2 0x845 JUMPI PUSH2 0x845 DUP7 PUSH2 0x8A3 JUMP JUMPDEST PUSH2 0x484 DUP7 DUP7 DUP7 DUP7 DUP7 DUP7 PUSH2 0x91A JUMP JUMPDEST PUSH1 0x1 PUSH4 0x80AC58CD PUSH1 0xE0 SHL SLOAD ADD DUP1 PUSH4 0x80AC58CD PUSH1 0xE0 SHL SSTORE DUP2 PUSH1 0x0 MSTORE PUSH1 0x20 PUSH1 0x0 KECCAK256 PUSH1 0x1 DUP2 SLOAD ADD DUP2 SSTORE DUP2 PUSH1 0x0 MSTORE PUSH1 0x20 PUSH1 0x0 KECCAK256 SWAP1 POP DUP3 DUP2 SSTORE POP DUP1 DUP3 PUSH1 0x0 PUSH1 0x0 DUP1 MLOAD PUSH1 0x20 PUSH2 0x109D DUP4 CODECOPY DUP2 MLOAD SWAP2 MSTORE PUSH1 0x0 DUP1 LOG4 POP POP JUMP JUMPDEST PUSH4 0xA9059CBB PUSH1 0xE0 SHL SLOAD PUSH4 0x23B872DD PUSH1 0xE0 SHL PUSH1 0x80 MSTORE CALLER PUSH1 0x84 MSTORE ADDRESS PUSH1 0xA4 MSTORE DUP2 PUSH1 0xC4 MSTORE PUSH1 0x0 DUP1 PUSH1 0x64 PUSH1 0x80 PUSH1 0x0 DUP6 GAS CALL PUSH2 0x8FA JUMPI PUSH3 0x461BCD PUSH1 0xE5 SHL PUSH1 0x80 MSTORE PUSH1 0x1 PUSH1 0xE5 SHL PUSH1 0xA0 MSTORE PUSH8 0x3B0B6BA1032B939 PUSH1 0xA9 SHL PUSH1 0xC0 MSTORE PUSH1 0x64 PUSH1 0x80 REVERT JUMPDEST PUSH4 0x852CD8D PUSH1 0xE3 SHL PUSH1 0x80 MSTORE DUP2 PUSH1 0x84 MSTORE PUSH1 0x0 DUP1 PUSH1 0x24 PUSH1 0x80 PUSH1 0x0 DUP6 GAS CALL POP POP POP JUMP JUMPDEST PUSH1 0x0 CALLER SLOAD GT PUSH1 0x0 ADDRESS SLOAD GT OR ISZERO PUSH2 0x953 JUMPI PUSH3 0x461BCD PUSH1 0xE5 SHL PUSH1 0x80 MSTORE PUSH1 0x1 PUSH1 0xE5 SHL PUSH1 0xA0 MSTORE PUSH10 0x25CDD5CDC195B991959 PUSH1 0x9A SHL PUSH1 0xC0 MSTORE PUSH1 0x64 PUSH1 0x80 REVERT JUMPDEST PUSH1 0x0 ORIGIN PUSH1 0x80 MSTORE DUP5 PUSH1 0xA0 MSTORE DUP7 PUSH1 0xC0 MSTORE DUP6 PUSH1 0xE0 MSTORE PUSH1 0x80 DUP1 KECCAK256 SWAP1 POP PUSH1 0x0 PUSH1 0x1 DUP3 DUP7 DUP7 DUP7 PUSH1 0x40 MLOAD PUSH1 0x0 DUP2 MSTORE PUSH1 0x20 ADD PUSH1 0x40 MSTORE PUSH1 0x40 MLOAD PUSH2 0x990 SWAP5 SWAP4 SWAP3 SWAP2 SWAP1 PUSH2 0x1000 JUMP JUMPDEST PUSH1 0x20 PUSH1 0x40 MLOAD PUSH1 0x20 DUP2 SUB SWAP1 DUP1 DUP5 SUB SWAP1 DUP6 GAS STATICCALL ISZERO DUP1 ISZERO PUSH2 0x9B2 JUMPI RETURNDATASIZE PUSH1 0x0 DUP1 RETURNDATACOPY RETURNDATASIZE PUSH1 0x0 REVERT JUMPDEST POP POP POP PUSH1 0x20 PUSH1 0x40 MLOAD SUB MLOAD SWAP1 POP DUP6 PUSH1 0xA SHL PUSH1 0x0 DUP2 SLOAD GT PUSH4 0x95EA7B3 PUSH1 0xE0 SHL SLOAD DUP4 EQ ISZERO OR ISZERO PUSH2 0xA00 JUMPI PUSH3 0x461BCD PUSH1 0xE5 SHL PUSH1 0x80 MSTORE PUSH1 0x1 PUSH1 0xE5 SHL PUSH1 0xA0 MSTORE PUSH8 0x3B9B4B39032B939 PUSH1 0xA9 SHL PUSH1 0xC0 MSTORE PUSH1 0x64 PUSH1 0x80 REVERT JUMPDEST PUSH1 0x1 SWAP1 SSTORE POP POP POP POP POP POP POP POP JUMP JUMPDEST DUP1 PUSH1 0x0 MSTORE PUSH1 0x20 PUSH1 0x0 KECCAK256 PUSH1 0x2 DUP2 ADD PUSH1 0x1 DUP2 SLOAD ADD DUP2 SSTORE PUSH1 0x1 DUP3 ADD SWAP1 POP DUP1 SLOAD DUP1 PUSH2 0xA76 JUMPI TIMESTAMP PUSH1 0x0 MSTORE CALLER PUSH1 0x20 MSTORE PUSH10 0x25CDD5CDC195B991959 PUSH1 0x9A SHL SLOAD PUSH8 0x3B0B6BA1032B939 PUSH1 0xA9 SHL SLOAD PUSH1 0x40 PUSH1 0x0 KECCAK256 MOD ADD SWAP1 POP DUP1 DUP3 SSTORE DUP1 PUSH8 0x3B0B6BA1032B939 PUSH1 0xA9 SHL ADD PUSH1 0x1 DUP2 SLOAD ADD DUP2 SSTORE POP JUMPDEST PUSH4 0xBFA8175 PUSH1 0xE2 SHL PUSH1 0x0 MSTORE DUP1 PUSH1 0x20 MSTORE POP PUSH1 0x40 PUSH1 0x0 KECCAK256 SWAP1 POP PUSH1 0x0 PUSH1 0x0 DUP1 MLOAD PUSH1 0x20 PUSH2 0x109D DUP4 CODECOPY DUP2 MLOAD SWAP2 MSTORE PUSH1 0x0 JUMPDEST PUSH1 0x5 DUP2 LT ISZERO PUSH2 0xADF JUMPI DUP1 DUP5 ADD SLOAD DUP7 DUP2 EQ ISZERO PUSH2 0xAB8 JUMPI STOP JUMPDEST DUP1 PUSH1 0x0 MSTORE POP PUSH1 0x2 PUSH1 0x20 PUSH1 0x0 KECCAK256 ADD SLOAD SWAP5 POP DUP2 DUP6 LT ISZERO PUSH2 0xAD7 JUMPI DUP1 SWAP3 POP DUP5 SWAP2 POP JUMPDEST PUSH1 0x1 ADD PUSH2 0xAA1 JUMP JUMPDEST POP DUP5 PUSH1 0x0 MSTORE DUP1 PUSH1 0x20 PUSH1 0x0 KECCAK256 SLOAD GT ISZERO PUSH2 0xAF7 JUMPI DUP5 DUP3 DUP5 ADD SSTORE JUMPDEST POP POP POP POP POP JUMP JUMPDEST PUSH1 0x0 DUP2 PUSH1 0x0 MSTORE PUSH1 0x20 PUSH1 0x0 KECCAK256 DUP1 SLOAD SWAP2 POP DUP2 PUSH1 0x0 MSTORE CALLER PUSH1 0x20 MSTORE PUSH1 0x40 PUSH1 0x0 KECCAK256 SLOAD PUSH1 0x3 DUP3 ADD SLOAD PUSH1 0x0 MSTORE PUSH1 0x0 DUP2 EQ CALLER DUP5 EQ ISZERO DUP7 PUSH1 0x0 MLOAD EQ ISZERO AND AND ISZERO PUSH2 0xB63 JUMPI PUSH3 0x461BCD PUSH1 0xE5 SHL PUSH1 0x80 MSTORE PUSH1 0x1 PUSH1 0xE5 SHL PUSH1 0xA0 MSTORE PUSH12 0x2DB9BC8185C1C1C9BDD985B PUSH1 0x8A SHL PUSH1 0xC0 MSTORE PUSH1 0x64 PUSH1 0x80 REVERT JUMPDEST DUP5 DUP3 SSTORE PUSH1 0x0 PUSH1 0x3 DUP4 ADD SSTORE DUP3 PUSH1 0x0 MSTORE PUSH1 0x20 PUSH1 0x0 KECCAK256 SWAP1 POP PUSH1 0x1 DUP2 SLOAD SUB DUP2 SSTORE DUP5 PUSH1 0x0 MSTORE PUSH1 0x20 PUSH1 0x0 KECCAK256 SWAP1 POP PUSH1 0x1 DUP2 SLOAD ADD DUP2 SSTORE POP POP DUP2 DUP4 DUP3 PUSH1 0x0 DUP1 MLOAD PUSH1 0x20 PUSH2 0x109D DUP4 CODECOPY DUP2 MLOAD SWAP2 MSTORE PUSH1 0x0 DUP1 LOG4 PUSH2 0x496 DUP2 DUP5 PUSH2 0xC0E JUMP JUMPDEST PUSH1 0x60 PUSH1 0x0 DUP1 DUP4 PUSH2 0xBC8 JUMPI POP PUSH1 0x3 PUSH1 0xFC SHL SWAP1 POP PUSH1 0x1 JUMPDEST JUMPDEST DUP4 ISZERO PUSH2 0xBF2 JUMPI PUSH1 0xA DUP1 DUP6 DIV SWAP5 MOD PUSH1 0x30 ADD PUSH1 0x1 PUSH1 0xF8 SHL MUL PUSH2 0x100 SWAP1 SWAP3 DIV SWAP2 SWAP1 SWAP2 OR SWAP1 PUSH1 0x1 ADD PUSH2 0xBC9 JUMP JUMPDEST PUSH1 0x40 MLOAD SWAP3 POP PUSH1 0x40 DUP4 ADD PUSH1 0x40 MSTORE DUP1 DUP4 MSTORE POP DUP1 PUSH1 0x20 DUP4 ADD MSTORE POP SWAP2 SWAP1 POP JUMP JUMPDEST PUSH1 0x0 DUP2 SLOAD GT PUSH1 0x0 DUP4 SLOAD GT PUSH1 0x0 CALLER SLOAD GT PUSH1 0x0 ADDRESS SLOAD GT OR OR OR ISZERO PUSH2 0x559 JUMPI PUSH3 0x461BCD PUSH1 0xE5 SHL PUSH1 0x80 MSTORE PUSH1 0x1 PUSH1 0xE5 SHL PUSH1 0xA0 MSTORE PUSH10 0x25CDD5CDC195B991959 PUSH1 0x9A SHL PUSH1 0xC0 MSTORE PUSH1 0x64 PUSH1 0x80 REVERT JUMPDEST DUP1 CALLDATALOAD PUSH1 0x1 PUSH1 0x1 PUSH1 0xA0 SHL SUB DUP2 AND DUP2 EQ PUSH2 0xC6A JUMPI PUSH1 0x0 DUP1 REVERT JUMPDEST SWAP2 SWAP1 POP JUMP JUMPDEST DUP1 CALLDATALOAD PUSH1 0xFF DUP2 AND DUP2 EQ PUSH2 0xC6A JUMPI PUSH1 0x0 DUP1 REVERT JUMPDEST PUSH1 0x0 PUSH1 0x20 DUP3 DUP5 SUB SLT ISZERO PUSH2 0xC91 JUMPI DUP1 DUP2 REVERT JUMPDEST PUSH2 0xC9A DUP3 PUSH2 0xC53 JUMP JUMPDEST SWAP4 SWAP3 POP POP POP JUMP JUMPDEST PUSH1 0x0 DUP1 PUSH1 0x40 DUP4 DUP6 SUB SLT ISZERO PUSH2 0xCB3 JUMPI DUP1 DUP2 REVERT JUMPDEST PUSH2 0xCBC DUP4 PUSH2 0xC53 JUMP JUMPDEST SWAP2 POP PUSH2 0xCCA PUSH1 0x20 DUP5 ADD PUSH2 0xC53 JUMP JUMPDEST SWAP1 POP SWAP3 POP SWAP3 SWAP1 POP JUMP JUMPDEST PUSH1 0x0 DUP1 PUSH1 0x0 PUSH1 0x60 DUP5 DUP7 SUB SLT ISZERO PUSH2 0xCE7 JUMPI DUP1 DUP2 REVERT JUMPDEST PUSH2 0xCF0 DUP5 PUSH2 0xC53 JUMP JUMPDEST SWAP3 POP PUSH2 0xCFE PUSH1 0x20 DUP6 ADD PUSH2 0xC53 JUMP JUMPDEST SWAP2 POP PUSH1 0x40 DUP5 ADD CALLDATALOAD SWAP1 POP SWAP3 POP SWAP3 POP SWAP3 JUMP JUMPDEST PUSH1 0x0 DUP1 PUSH1 0x0 DUP1 PUSH1 0x80 DUP6 DUP8 SUB SLT ISZERO PUSH2 0xD23 JUMPI DUP1 DUP2 REVERT JUMPDEST PUSH2 0xD2C DUP6 PUSH2 0xC53 JUMP JUMPDEST SWAP4 POP PUSH1 0x20 PUSH2 0xD3B DUP2 DUP8 ADD PUSH2 0xC53 JUMP JUMPDEST SWAP4 POP PUSH1 0x40 DUP7 ADD CALLDATALOAD SWAP3 POP PUSH1 0x60 DUP7 ADD CALLDATALOAD PUSH8 0xFFFFFFFFFFFFFFFF DUP1 DUP3 GT ISZERO PUSH2 0xD5E JUMPI DUP4 DUP5 REVERT JUMPDEST DUP2 DUP9 ADD SWAP2 POP DUP9 PUSH1 0x1F DUP4 ADD SLT PUSH2 0xD71 JUMPI DUP4 DUP5 REVERT JUMPDEST DUP2 CALLDATALOAD DUP2 DUP2 GT ISZERO PUSH2 0xD83 JUMPI PUSH2 0xD83 PUSH2 0x1086 JUMP JUMPDEST PUSH1 0x40 MLOAD PUSH1 0x1F DUP3 ADD PUSH1 0x1F NOT AND DUP2 ADD DUP6 ADD DUP4 DUP2 GT DUP3 DUP3 LT OR ISZERO PUSH2 0xDA6 JUMPI PUSH2 0xDA6 PUSH2 0x1086 JUMP JUMPDEST PUSH1 0x40 MSTORE DUP2 DUP2 MSTORE DUP4 DUP3 ADD DUP6 ADD DUP12 LT ISZERO PUSH2 0xDBC JUMPI DUP6 DUP7 REVERT JUMPDEST DUP2 DUP6 DUP6 ADD DUP7 DUP4 ADD CALLDATACOPY SWAP1 DUP2 ADD SWAP1 SWAP4 ADD SWAP4 SWAP1 SWAP4 MSTORE POP SWAP4 SWAP7 SWAP3 SWAP6 POP SWAP1 SWAP4 POP POP JUMP JUMPDEST PUSH1 0x0 DUP1 PUSH1 0x40 DUP4 DUP6 SUB SLT ISZERO PUSH2 0xDEC JUMPI DUP2 DUP3 REVERT JUMPDEST PUSH2 0xDF5 DUP4 PUSH2 0xC53 JUMP JUMPDEST SWAP2 POP PUSH1 0x20 DUP4 ADD CALLDATALOAD DUP1 ISZERO ISZERO DUP2 EQ PUSH2 0xE09 JUMPI DUP2 DUP3 REVERT JUMPDEST DUP1 SWAP2 POP POP SWAP3 POP SWAP3 SWAP1 POP JUMP JUMPDEST PUSH1 0x0 DUP1 PUSH1 0x40 DUP4 DUP6 SUB SLT ISZERO PUSH2 0xE26 JUMPI DUP2 DUP3 REVERT JUMPDEST PUSH2 0xE2F DUP4 PUSH2 0xC53 JUMP JUMPDEST SWAP5 PUSH1 0x20 SWAP4 SWAP1 SWAP4 ADD CALLDATALOAD SWAP4 POP POP POP JUMP JUMPDEST PUSH1 0x0 DUP1 PUSH1 0x0 DUP1 PUSH1 0x0 DUP1 PUSH1 0x0 PUSH1 0xC0 DUP9 DUP11 SUB SLT ISZERO PUSH2 0xE57 JUMPI DUP3 DUP4 REVERT JUMPDEST DUP8 CALLDATALOAD PUSH8 0xFFFFFFFFFFFFFFFF DUP1 DUP3 GT ISZERO PUSH2 0xE6E JUMPI DUP5 DUP6 REVERT JUMPDEST DUP2 DUP11 ADD SWAP2 POP DUP11 PUSH1 0x1F DUP4 ADD SLT PUSH2 0xE81 JUMPI DUP5 DUP6 REVERT JUMPDEST DUP2 CALLDATALOAD DUP2 DUP2 GT ISZERO PUSH2 0xE8F JUMPI DUP6 DUP7 REVERT JUMPDEST DUP12 PUSH1 0x20 DUP1 DUP4 MUL DUP6 ADD ADD GT ISZERO PUSH2 0xEA2 JUMPI DUP6 DUP7 REVERT JUMPDEST PUSH1 0x20 SWAP3 DUP4 ADD SWAP10 POP SWAP8 POP POP DUP9 ADD CALLDATALOAD SWAP5 POP PUSH1 0x40 DUP9 ADD CALLDATALOAD SWAP4 POP PUSH2 0xEC4 PUSH1 0x60 DUP10 ADD PUSH2 0xC6F JUMP JUMPDEST SWAP3 POP PUSH1 0x80 DUP9 ADD CALLDATALOAD SWAP2 POP PUSH1 0xA0 DUP9 ADD CALLDATALOAD SWAP1 POP SWAP3 SWAP6 SWAP9 SWAP2 SWAP5 SWAP8 POP SWAP3 SWAP6 POP JUMP JUMPDEST PUSH1 0x0 PUSH1 0x20 DUP3 DUP5 SUB SLT ISZERO PUSH2 0xEF1 JUMPI DUP1 DUP2 REVERT JUMPDEST DUP2 CALLDATALOAD PUSH1 0x1 PUSH1 0x1 PUSH1 0xE0 SHL SUB NOT DUP2 AND DUP2 EQ PUSH2 0xC9A JUMPI DUP2 DUP3 REVERT JUMPDEST PUSH1 0x0 PUSH1 0x20 DUP3 DUP5 SUB SLT ISZERO PUSH2 0xF19 JUMPI DUP1 DUP2 REVERT JUMPDEST POP CALLDATALOAD SWAP2 SWAP1 POP JUMP JUMPDEST PUSH1 0x0 DUP1 PUSH1 0x0 DUP1 PUSH1 0x0 DUP1 PUSH1 0xC0 DUP8 DUP10 SUB SLT ISZERO PUSH2 0xF38 JUMPI DUP2 DUP3 REVERT JUMPDEST DUP7 CALLDATALOAD SWAP6 POP PUSH1 0x20 DUP8 ADD CALLDATALOAD SWAP5 POP PUSH1 0x40 DUP8 ADD CALLDATALOAD SWAP4 POP PUSH2 0xF56 PUSH1 0x60 DUP9 ADD PUSH2 0xC6F JUMP JUMPDEST SWAP3 POP PUSH1 0x80 DUP8 ADD CALLDATALOAD SWAP2 POP PUSH1 0xA0 DUP8 ADD CALLDATALOAD SWAP1 POP SWAP3 SWAP6 POP SWAP3 SWAP6 POP SWAP3 SWAP6 JUMP JUMPDEST PUSH1 0x0 DUP4 MLOAD PUSH2 0xF82 DUP2 DUP5 PUSH1 0x20 DUP9 ADD PUSH2 0x105A JUMP JUMPDEST DUP4 MLOAD SWAP1 DUP4 ADD SWAP1 PUSH2 0xF96 DUP2 DUP4 PUSH1 0x20 DUP9 ADD PUSH2 0x105A JUMP JUMPDEST ADD SWAP5 SWAP4 POP POP POP POP JUMP JUMPDEST PUSH1 0x1 PUSH1 0x1 PUSH1 0xA0 SHL SUB SWAP2 SWAP1 SWAP2 AND DUP2 MSTORE PUSH1 0x20 ADD SWAP1 JUMP JUMPDEST PUSH1 0x1 PUSH1 0x1 PUSH1 0xA0 SHL SUB SWAP6 DUP7 AND DUP2 MSTORE SWAP4 DUP6 AND PUSH1 0x20 DUP6 ADD MSTORE SWAP2 DUP5 AND PUSH1 0x40 DUP5 ADD MSTORE DUP4 AND PUSH1 0x60 DUP4 ADD MSTORE SWAP1 SWAP2 AND PUSH1 0x80 DUP3 ADD MSTORE PUSH1 0xA0 ADD SWAP1 JUMP JUMPDEST SWAP1 ISZERO ISZERO DUP2 MSTORE PUSH1 0x20 ADD SWAP1 JUMP JUMPDEST SWAP2 ISZERO ISZERO DUP3 MSTORE PUSH1 0x20 DUP3 ADD MSTORE PUSH1 0x40 ADD SWAP1 JUMP JUMPDEST SWAP4 DUP5 MSTORE PUSH1 0xFF SWAP3 SWAP1 SWAP3 AND PUSH1 0x20 DUP5 ADD MSTORE PUSH1 0x40 DUP4 ADD MSTORE PUSH1 0x60 DUP3 ADD MSTORE PUSH1 0x80 ADD SWAP1 JUMP JUMPDEST PUSH1 0x0 PUSH1 0x20 DUP3 MSTORE DUP3 MLOAD DUP1 PUSH1 0x20 DUP5 ADD MSTORE PUSH2 0x103D DUP2 PUSH1 0x40 DUP6 ADD PUSH1 0x20 DUP8 ADD PUSH2 0x105A JUMP JUMPDEST PUSH1 0x1F ADD PUSH1 0x1F NOT AND SWAP2 SWAP1 SWAP2 ADD PUSH1 0x40 ADD SWAP3 SWAP2 POP POP JUMP JUMPDEST SWAP1 DUP2 MSTORE PUSH1 0x20 ADD SWAP1 JUMP JUMPDEST PUSH1 0x0 JUMPDEST DUP4 DUP2 LT ISZERO PUSH2 0x1075 JUMPI DUP2 DUP2 ADD MLOAD DUP4 DUP3 ADD MSTORE PUSH1 0x20 ADD PUSH2 0x105D JUMP JUMPDEST DUP4 DUP2 GT ISZERO PUSH2 0x6C1 JUMPI POP POP PUSH1 0x0 SWAP2 ADD MSTORE JUMP JUMPDEST PUSH4 0x4E487B71 PUSH1 0xE0 SHL PUSH1 0x0 MSTORE PUSH1 0x41 PUSH1 0x4 MSTORE PUSH1 0x24 PUSH1 0x0 REVERT INVALID 0xDD CALLCODE MSTORE 0xAD SHL 0xE2 0xC8 SWAP12 PUSH10 0xC2B068FC378DAA952BA7 CALL PUSH4 0xC4A11628 CREATE2 GAS 0x4D CREATE2 0x23 0xB3 0xEF LOG2 PUSH5 0x6970667358 0x22 SLT KECCAK256 PUSH11 0x8B0FB4369812FBD3FD177E SHL SAR 0x49 ORIGIN 0xBA DIV 0xA6 0x5E GT 0xE4 SSTORE SWAP9 0xC9 0xDA LT SWAP13 EXTCODESIZE 0xDE 0x5F SWAP16 PUSH5 0x736F6C6343 STOP ADDMOD STOP STOP CALLER PUSH1 0x80 PUSH1 0x40 MSTORE CALLVALUE DUP1 ISZERO PUSH2 0x10 JUMPI PUSH1 0x0 DUP1 REVERT JUMPDEST POP CALLER PUSH4 0x31A9108F PUSH1 0xE1 SHL SSTORE PUSH2 0xA76 DUP1 PUSH2 0x2A PUSH1 0x0 CODECOPY PUSH1 0x0 RETURN INVALID PUSH1 0x80 PUSH1 0x40 MSTORE CALLVALUE DUP1 ISZERO PUSH2 0x10 JUMPI PUSH1 0x0 DUP1 REVERT JUMPDEST POP PUSH1 0x4 CALLDATASIZE LT PUSH2 0xCE JUMPI PUSH1 0x0 CALLDATALOAD PUSH1 0xE0 SHR DUP1 PUSH4 0x8DA5CB5B GT PUSH2 0x8C JUMPI DUP1 PUSH4 0xC6C3BBE6 GT PUSH2 0x66 JUMPI DUP1 PUSH4 0xC6C3BBE6 EQ PUSH2 0x1AC JUMPI DUP1 PUSH4 0xC9D27AFE EQ PUSH2 0x1BF JUMPI DUP1 PUSH4 0xD6F7DDF9 EQ PUSH2 0x1D2 JUMPI DUP1 PUSH4 0xF58545DF EQ PUSH2 0x1E5 JUMPI PUSH2 0xCE JUMP JUMPDEST DUP1 PUSH4 0x8DA5CB5B EQ PUSH2 0x171 JUMPI DUP1 PUSH4 0xB12D96F7 EQ PUSH2 0x186 JUMPI DUP1 PUSH4 0xBACBE2DA EQ PUSH2 0x199 JUMPI PUSH2 0xCE JUMP JUMPDEST DUP1 PUSH3 0x80178A EQ PUSH2 0xD3 JUMPI DUP1 PUSH4 0x6661ABD EQ PUSH2 0xE8 JUMPI DUP1 PUSH4 0x1C64B670 EQ PUSH2 0x106 JUMPI DUP1 PUSH4 0x491B6BA3 EQ PUSH2 0x12A JUMPI DUP1 PUSH4 0x716F81A5 EQ PUSH2 0x13D JUMPI DUP1 PUSH4 0x79131A19 EQ PUSH2 0x150 JUMPI JUMPDEST PUSH1 0x0 DUP1 REVERT JUMPDEST PUSH2 0xE6 PUSH2 0xE1 CALLDATASIZE PUSH1 0x4 PUSH2 0x8D4 JUMP JUMPDEST PUSH2 0x1F8 JUMP JUMPDEST STOP JUMPDEST PUSH2 0xF0 PUSH2 0x2A8 JUMP JUMPDEST PUSH1 0x40 MLOAD PUSH2 0xFD SWAP2 SWAP1 PUSH2 0xA37 JUMP JUMPDEST PUSH1 0x40 MLOAD DUP1 SWAP2 SUB SWAP1 RETURN JUMPDEST PUSH2 0x119 PUSH2 0x114 CALLDATASIZE PUSH1 0x4 PUSH2 0x932 JUMP JUMPDEST PUSH2 0x2B4 JUMP JUMPDEST PUSH1 0x40 MLOAD PUSH2 0xFD SWAP6 SWAP5 SWAP4 SWAP3 SWAP2 SWAP1 PUSH2 0x9B2 JUMP JUMPDEST PUSH2 0xE6 PUSH2 0x138 CALLDATASIZE PUSH1 0x4 PUSH2 0x97D JUMP JUMPDEST PUSH2 0x2F4 JUMP JUMPDEST PUSH2 0xE6 PUSH2 0x14B CALLDATASIZE PUSH1 0x4 PUSH2 0x879 JUMP JUMPDEST PUSH2 0x330 JUMP JUMPDEST PUSH2 0x163 PUSH2 0x15E CALLDATASIZE PUSH1 0x4 PUSH2 0x81D JUMP JUMPDEST PUSH2 0x3B9 JUMP JUMPDEST PUSH1 0x40 MLOAD PUSH2 0xFD SWAP3 SWAP2 SWAP1 PUSH2 0xA09 JUMP JUMPDEST PUSH2 0x179 PUSH2 0x3CA JUMP JUMPDEST PUSH1 0x40 MLOAD PUSH2 0xFD SWAP2 SWAP1 PUSH2 0x99E JUMP JUMPDEST PUSH2 0xF0 PUSH2 0x194 CALLDATASIZE PUSH1 0x4 PUSH2 0x8AB JUMP JUMPDEST PUSH2 0x3D6 JUMP JUMPDEST PUSH2 0xE6 PUSH2 0x1A7 CALLDATASIZE PUSH1 0x4 PUSH2 0x932 JUMP JUMPDEST PUSH2 0x4B2 JUMP JUMPDEST PUSH2 0xE6 PUSH2 0x1BA CALLDATASIZE PUSH1 0x4 PUSH2 0x83E JUMP JUMPDEST PUSH2 0x525 JUMP JUMPDEST PUSH2 0xE6 PUSH2 0x1CD CALLDATASIZE PUSH1 0x4 PUSH2 0x94A JUMP JUMPDEST PUSH2 0x5A9 JUMP JUMPDEST PUSH2 0xE6 PUSH2 0x1E0 CALLDATASIZE PUSH1 0x4 PUSH2 0x8AB JUMP JUMPDEST PUSH2 0x617 JUMP JUMPDEST PUSH2 0xE6 PUSH2 0x1F3 CALLDATASIZE PUSH1 0x4 PUSH2 0x8AB JUMP JUMPDEST PUSH2 0x62B JUMP JUMPDEST PUSH2 0x207 DUP6 PUSH1 0x0 DUP7 DUP7 DUP7 DUP7 PUSH2 0x692 JUMP JUMPDEST PUSH4 0xA9059CBB PUSH1 0xE0 SHL PUSH1 0x80 MSTORE CALLER PUSH1 0x84 MSTORE DUP5 PUSH1 0xA4 MSTORE PUSH1 0x0 DUP1 PUSH1 0x44 PUSH1 0x80 PUSH1 0x0 PUSH4 0xA9059CBB PUSH1 0xE0 SHL SLOAD GAS CALL PUSH2 0x259 JUMPI PUSH3 0x461BCD PUSH1 0xE5 SHL PUSH1 0x80 MSTORE PUSH1 0x1 PUSH1 0xE5 SHL PUSH1 0xA0 MSTORE PUSH8 0x3B0B6BA1032B939 PUSH1 0xA9 SHL PUSH1 0xC0 MSTORE PUSH1 0x64 PUSH1 0x80 REVERT JUMPDEST DUP6 PUSH1 0x5 SHL SLOAD PUSH2 0x2A0 JUMPI POP POP PUSH1 0x6 DUP5 SWAP1 SHL DUP1 SLOAD DUP1 DUP6 GT ISZERO PUSH2 0x29A JUMPI PUSH3 0x461BCD PUSH1 0xE5 SHL PUSH1 0x80 MSTORE PUSH1 0x1 PUSH1 0xE5 SHL PUSH1 0xA0 MSTORE PUSH8 0x3B0B6BA1032B939 PUSH1 0xA9 SHL PUSH1 0xC0 MSTORE PUSH1 0x64 PUSH1 0x80 REVERT JUMPDEST DUP5 DUP2 SUB DUP3 SSTORE JUMPDEST POP POP POP POP POP POP JUMP JUMPDEST PUSH4 0x80AC58CD PUSH1 0xE0 SHL SLOAD SWAP1 JUMP JUMPDEST PUSH2 0x2BC PUSH2 0x7E3 JUMP JUMPDEST PUSH1 0x0 DUP1 PUSH1 0x0 DUP1 DUP6 PUSH1 0x0 MSTORE PUSH1 0x20 PUSH1 0x0 KECCAK256 PUSH1 0x0 JUMPDEST PUSH1 0x9 DUP2 LT ISZERO PUSH2 0x2EB JUMPI DUP2 DUP2 ADD SLOAD PUSH1 0x80 PUSH1 0x20 DUP4 MUL ADD MSTORE PUSH1 0x1 ADD PUSH2 0x2CE JUMP JUMPDEST POP POP PUSH2 0x120 PUSH1 0x80 RETURN JUMPDEST DUP2 PUSH1 0x0 MSTORE DUP1 PUSH1 0x20 MSTORE CALLER PUSH32 0x5B6B68C7BDBD1A2670386A943B40BB818DD5806B1CBFDBE38B4B399A8A7E6EAB PUSH1 0x40 PUSH1 0x0 LOG2 PUSH2 0x32C DUP2 PUSH2 0x786 JUMP JUMPDEST POP POP JUMP JUMPDEST PUSH4 0x31A9108F PUSH1 0xE1 SHL SLOAD CALLER EQ PUSH2 0x368 JUMPI PUSH3 0x461BCD PUSH1 0xE5 SHL PUSH1 0x80 MSTORE PUSH1 0x1 PUSH1 0xE5 SHL PUSH1 0xA0 MSTORE PUSH10 0x96E6F20616363657373 PUSH1 0x98 SHL PUSH1 0xC0 MSTORE PUSH1 0x64 PUSH1 0x80 REVERT JUMPDEST PUSH4 0xB88BAB29 PUSH1 0xE0 SHL PUSH1 0x80 MSTORE DUP2 PUSH1 0x84 MSTORE DUP1 PUSH1 0xA4 MSTORE PUSH1 0x0 DUP1 PUSH1 0xA4 PUSH1 0x80 PUSH1 0x0 DUP8 GAS CALL PUSH2 0x3B4 JUMPI PUSH3 0x461BCD PUSH1 0xE5 SHL PUSH1 0x80 MSTORE PUSH1 0x1 PUSH1 0xE5 SHL PUSH1 0xA0 MSTORE PUSH10 0x96E6F20616363657373 PUSH1 0x98 SHL PUSH1 0xC0 MSTORE PUSH1 0x64 PUSH1 0x80 REVERT JUMPDEST POP POP POP JUMP JUMPDEST PUSH1 0x5 DUP2 SWAP1 SHL SLOAD PUSH1 0x6 SWAP2 SWAP1 SWAP2 SHL SLOAD SWAP1 SWAP2 JUMP JUMPDEST PUSH4 0x31A9108F PUSH1 0xE1 SHL SLOAD SWAP1 JUMP JUMPDEST PUSH1 0x0 PUSH4 0xBFA8175 PUSH1 0xE2 SHL PUSH1 0x0 MSTORE CALLER PUSH1 0x4 MSTORE PUSH1 0x40 PUSH1 0x0 PUSH1 0x24 PUSH1 0x0 PUSH4 0xBFA8175 PUSH1 0xE2 SHL SLOAD GAS STATICCALL POP PUSH1 0x20 MLOAD PUSH2 0x100 DUP4 LT DUP4 SLOAD ISZERO AND DUP2 ISZERO OR ISZERO PUSH2 0x438 JUMPI PUSH3 0x461BCD PUSH1 0xE5 SHL PUSH1 0x80 MSTORE PUSH1 0x1 PUSH1 0xE5 SHL PUSH1 0xA0 MSTORE PUSH10 0x96E6F20616363657373 PUSH1 0x98 SHL PUSH1 0xC0 MSTORE PUSH1 0x64 PUSH1 0x80 REVERT JUMPDEST PUSH1 0x1 PUSH4 0x80AC58CD PUSH1 0xE0 SHL SLOAD ADD SWAP2 POP DUP2 PUSH4 0x80AC58CD PUSH1 0xE0 SHL SSTORE DUP2 PUSH1 0x0 MSTORE PUSH1 0x20 PUSH1 0x0 KECCAK256 DUP4 PUSH1 0x5 DUP3 ADD SSTORE DUP5 PUSH1 0x6 DUP3 ADD SSTORE CALLER PUSH1 0x7 DUP3 ADD SSTORE DUP2 PUSH1 0x8 DUP3 ADD SSTORE POP POP PUSH1 0xFF DUP3 GT ISZERO PUSH2 0x481 JUMPI PUSH1 0x3 SWAP2 POP JUMPDEST DUP2 PUSH1 0x0 MSTORE DUP1 PUSH32 0x33952EF907843FD2DDD118A92DD935DEBF65B72965A557A364EA08DEFFCA032F PUSH1 0x20 PUSH1 0x0 LOG2 SWAP3 SWAP2 POP POP JUMP JUMPDEST DUP1 PUSH1 0x0 MSTORE PUSH1 0x20 PUSH1 0x0 KECCAK256 CALLER PUSH1 0x7 DUP3 ADD SLOAD EQ PUSH2 0x4EF JUMPI PUSH3 0x461BCD PUSH1 0xE5 SHL PUSH1 0x80 MSTORE PUSH1 0x1 PUSH1 0xE5 SHL PUSH1 0xA0 MSTORE PUSH10 0x96E6F20616363657373 PUSH1 0x98 SHL PUSH1 0xC0 MSTORE PUSH1 0x64 PUSH1 0x80 REVERT JUMPDEST PUSH1 0x0 PUSH1 0x5 DUP3 ADD SSTORE POP PUSH1 0x0 DUP1 MSTORE DUP1 PUSH32 0x33952EF907843FD2DDD118A92DD935DEBF65B72965A557A364EA08DEFFCA032F PUSH1 0x20 PUSH1 0x0 LOG2 POP JUMP JUMPDEST PUSH4 0x31A9108F PUSH1 0xE1 SHL SLOAD CALLER EQ PUSH2 0x55D JUMPI PUSH3 0x461BCD PUSH1 0xE5 SHL PUSH1 0x80 MSTORE PUSH1 0x1 PUSH1 0xE5 SHL PUSH1 0xA0 MSTORE PUSH10 0x96E6F20616363657373 PUSH1 0x98 SHL PUSH1 0xC0 MSTORE PUSH1 0x64 PUSH1 0x80 REVERT JUMPDEST PUSH4 0x40C10F19 PUSH1 0xE0 SHL PUSH1 0x80 MSTORE DUP2 PUSH1 0x84 MSTORE DUP1 PUSH1 0xA4 MSTORE PUSH1 0x0 DUP1 PUSH1 0xA4 PUSH1 0x80 PUSH1 0x0 DUP8 GAS CALL PUSH2 0x3B4 JUMPI PUSH3 0x461BCD PUSH1 0xE5 SHL PUSH1 0x80 MSTORE PUSH1 0x1 PUSH1 0xE5 SHL PUSH1 0xA0 MSTORE PUSH10 0x96E6F20616363657373 PUSH1 0x98 SHL PUSH1 0xC0 MSTORE PUSH1 0x64 PUSH1 0x80 REVERT JUMPDEST PUSH4 0x64E93D7F PUSH1 0xE1 SHL PUSH1 0x80 MSTORE DUP2 PUSH1 0x84 MSTORE DUP1 PUSH1 0xA4 MSTORE PUSH1 0x20 PUSH1 0x84 KECCAK256 PUSH1 0x5 ADD SLOAD DUP1 SLOAD PUSH1 0xFF DUP3 GT ISZERO PUSH2 0x5D5 JUMPI POP PUSH1 0x3 SLOAD JUMPDEST DUP1 ISZERO PUSH1 0x0 DUP1 PUSH1 0x44 PUSH1 0x80 DUP6 GAS DELEGATECALL ISZERO OR ISZERO PUSH2 0x611 JUMPI PUSH3 0x461BCD PUSH1 0xE5 SHL PUSH1 0x80 MSTORE PUSH1 0x1 PUSH1 0xE5 SHL PUSH1 0xA0 MSTORE PUSH10 0x96E6F20616363657373 PUSH1 0x98 SHL PUSH1 0xC0 MSTORE PUSH1 0x64 PUSH1 0x80 REVERT JUMPDEST POP POP POP POP JUMP JUMPDEST DUP2 PUSH1 0x6 SHL DUP2 DUP2 SLOAD ADD DUP2 SSTORE POP PUSH2 0x32C DUP2 PUSH2 0x786 JUMP JUMPDEST DUP2 PUSH1 0x5 SHL SLOAD PUSH2 0x65D JUMPI PUSH3 0x461BCD PUSH1 0xE5 SHL PUSH1 0x80 MSTORE PUSH1 0x1 PUSH1 0xE5 SHL PUSH1 0xA0 MSTORE PUSH10 0x96E6F20616363657373 PUSH1 0x98 SHL PUSH1 0xC0 MSTORE PUSH1 0x64 PUSH1 0x80 REVERT JUMPDEST DUP1 PUSH1 0x0 MSTORE DUP2 CALLER PUSH32 0xDDF252AD1BE2C89B69C2B068FC378DAA952BA7F163C4A11628F55A4DF523B3EF PUSH1 0x20 PUSH1 0x0 LOG3 PUSH2 0x32C DUP2 PUSH2 0x786 JUMP JUMPDEST PUSH1 0x0 CALLER SLOAD GT PUSH1 0x0 ADDRESS SLOAD GT OR ISZERO PUSH2 0x6CB JUMPI PUSH3 0x461BCD PUSH1 0xE5 SHL PUSH1 0x80 MSTORE PUSH1 0x1 PUSH1 0xE5 SHL PUSH1 0xA0 MSTORE PUSH10 0x25CDD5CDC195B991959 PUSH1 0x9A SHL PUSH1 0xC0 MSTORE PUSH1 0x64 PUSH1 0x80 REVERT JUMPDEST PUSH1 0x0 ORIGIN PUSH1 0x80 MSTORE DUP5 PUSH1 0xA0 MSTORE DUP7 PUSH1 0xC0 MSTORE DUP6 PUSH1 0xE0 MSTORE PUSH1 0x80 DUP1 KECCAK256 SWAP1 POP PUSH1 0x0 PUSH1 0x1 DUP3 DUP7 DUP7 DUP7 PUSH1 0x40 MLOAD PUSH1 0x0 DUP2 MSTORE PUSH1 0x20 ADD PUSH1 0x40 MSTORE PUSH1 0x40 MLOAD PUSH2 0x708 SWAP5 SWAP4 SWAP3 SWAP2 SWAP1 PUSH2 0xA19 JUMP JUMPDEST PUSH1 0x20 PUSH1 0x40 MLOAD PUSH1 0x20 DUP2 SUB SWAP1 DUP1 DUP5 SUB SWAP1 DUP6 GAS STATICCALL ISZERO DUP1 ISZERO PUSH2 0x72A JUMPI RETURNDATASIZE PUSH1 0x0 DUP1 RETURNDATACOPY RETURNDATASIZE PUSH1 0x0 REVERT JUMPDEST POP POP POP PUSH1 0x20 PUSH1 0x40 MLOAD SUB MLOAD SWAP1 POP DUP6 PUSH1 0xA SHL PUSH1 0x0 DUP2 SLOAD GT PUSH4 0x95EA7B3 PUSH1 0xE0 SHL SLOAD DUP4 EQ ISZERO OR ISZERO PUSH2 0x778 JUMPI PUSH3 0x461BCD PUSH1 0xE5 SHL PUSH1 0x80 MSTORE PUSH1 0x1 PUSH1 0xE5 SHL PUSH1 0xA0 MSTORE PUSH8 0x3B9B4B39032B939 PUSH1 0xA9 SHL PUSH1 0xC0 MSTORE PUSH1 0x64 PUSH1 0x80 REVERT JUMPDEST PUSH1 0x1 SWAP1 SSTORE POP POP POP POP POP POP POP POP JUMP JUMPDEST PUSH4 0x23B872DD PUSH1 0xE0 SHL PUSH1 0x80 MSTORE CALLER PUSH1 0x84 MSTORE ADDRESS PUSH1 0xA4 MSTORE DUP1 PUSH1 0xC4 MSTORE PUSH1 0x0 DUP1 PUSH1 0x64 PUSH1 0x80 PUSH1 0x0 PUSH4 0xA9059CBB PUSH1 0xE0 SHL SLOAD GAS CALL PUSH2 0x7E0 JUMPI PUSH3 0x461BCD PUSH1 0xE5 SHL PUSH1 0x80 MSTORE PUSH1 0x1 PUSH1 0xE5 SHL PUSH1 0xA0 MSTORE PUSH12 0x2DB9BC8185C1C1C9BDD985B PUSH1 0x8A SHL PUSH1 0xC0 MSTORE PUSH1 0x64 PUSH1 0x80 REVERT JUMPDEST POP JUMP JUMPDEST PUSH1 0x40 MLOAD DUP1 PUSH1 0xA0 ADD PUSH1 0x40 MSTORE DUP1 PUSH1 0x5 SWAP1 PUSH1 0x20 DUP3 MUL DUP1 CALLDATASIZE DUP4 CALLDATACOPY POP SWAP2 SWAP3 SWAP2 POP POP JUMP JUMPDEST DUP1 CALLDATALOAD PUSH1 0x1 PUSH1 0x1 PUSH1 0xA0 SHL SUB DUP2 AND DUP2 EQ PUSH2 0x818 JUMPI PUSH1 0x0 DUP1 REVERT JUMPDEST SWAP2 SWAP1 POP JUMP JUMPDEST PUSH1 0x0 PUSH1 0x20 DUP3 DUP5 SUB SLT ISZERO PUSH2 0x82E JUMPI DUP1 DUP2 REVERT JUMPDEST PUSH2 0x837 DUP3 PUSH2 0x801 JUMP JUMPDEST SWAP4 SWAP3 POP POP POP JUMP JUMPDEST PUSH1 0x0 DUP1 PUSH1 0x0 PUSH1 0x60 DUP5 DUP7 SUB SLT ISZERO PUSH2 0x852 JUMPI DUP2 DUP3 REVERT JUMPDEST PUSH2 0x85B DUP5 PUSH2 0x801 JUMP JUMPDEST SWAP3 POP PUSH2 0x869 PUSH1 0x20 DUP6 ADD PUSH2 0x801 JUMP JUMPDEST SWAP2 POP PUSH1 0x40 DUP5 ADD CALLDATALOAD SWAP1 POP SWAP3 POP SWAP3 POP SWAP3 JUMP JUMPDEST PUSH1 0x0 DUP1 PUSH1 0x0 PUSH1 0x60 DUP5 DUP7 SUB SLT ISZERO PUSH2 0x88D JUMPI DUP3 DUP4 REVERT JUMPDEST PUSH2 0x896 DUP5 PUSH2 0x801 JUMP JUMPDEST SWAP6 PUSH1 0x20 DUP6 ADD CALLDATALOAD SWAP6 POP PUSH1 0x40 SWAP1 SWAP5 ADD CALLDATALOAD SWAP4 SWAP3 POP POP POP JUMP JUMPDEST PUSH1 0x0 DUP1 PUSH1 0x40 DUP4 DUP6 SUB SLT ISZERO PUSH2 0x8BD JUMPI DUP2 DUP3 REVERT JUMPDEST PUSH2 0x8C6 DUP4 PUSH2 0x801 JUMP JUMPDEST SWAP5 PUSH1 0x20 SWAP4 SWAP1 SWAP4 ADD CALLDATALOAD SWAP4 POP POP POP JUMP JUMPDEST PUSH1 0x0 DUP1 PUSH1 0x0 DUP1 PUSH1 0x0 DUP1 PUSH1 0xC0 DUP8 DUP10 SUB SLT ISZERO PUSH2 0x8EC JUMPI DUP2 DUP3 REVERT JUMPDEST PUSH2 0x8F5 DUP8 PUSH2 0x801 JUMP JUMPDEST SWAP6 POP PUSH1 0x20 DUP8 ADD CALLDATALOAD SWAP5 POP PUSH1 0x40 DUP8 ADD CALLDATALOAD SWAP4 POP PUSH1 0x60 DUP8 ADD CALLDATALOAD PUSH1 0xFF DUP2 AND DUP2 EQ PUSH2 0x918 JUMPI DUP3 DUP4 REVERT JUMPDEST SWAP6 SWAP9 SWAP5 SWAP8 POP SWAP3 SWAP6 PUSH1 0x80 DUP2 ADD CALLDATALOAD SWAP5 PUSH1 0xA0 SWAP1 SWAP2 ADD CALLDATALOAD SWAP4 POP SWAP2 POP POP JUMP JUMPDEST PUSH1 0x0 PUSH1 0x20 DUP3 DUP5 SUB SLT ISZERO PUSH2 0x943 JUMPI DUP1 DUP2 REVERT JUMPDEST POP CALLDATALOAD SWAP2 SWAP1 POP JUMP JUMPDEST PUSH1 0x0 DUP1 PUSH1 0x40 DUP4 DUP6 SUB SLT ISZERO PUSH2 0x95C JUMPI DUP2 DUP3 REVERT JUMPDEST DUP3 CALLDATALOAD SWAP2 POP PUSH1 0x20 DUP4 ADD CALLDATALOAD DUP1 ISZERO ISZERO DUP2 EQ PUSH2 0x972 JUMPI DUP2 DUP3 REVERT JUMPDEST DUP1 SWAP2 POP POP SWAP3 POP SWAP3 SWAP1 POP JUMP JUMPDEST PUSH1 0x0 DUP1 PUSH1 0x40 DUP4 DUP6 SUB SLT ISZERO PUSH2 0x98F JUMPI DUP2 DUP3 REVERT JUMPDEST POP POP DUP1 CALLDATALOAD SWAP3 PUSH1 0x20 SWAP1 SWAP2 ADD CALLDATALOAD SWAP2 POP JUMP JUMPDEST PUSH1 0x1 PUSH1 0x1 PUSH1 0xA0 SHL SUB SWAP2 SWAP1 SWAP2 AND DUP2 MSTORE PUSH1 0x20 ADD SWAP1 JUMP JUMPDEST PUSH2 0x120 DUP2 ADD DUP2 DUP8 PUSH1 0x0 JUMPDEST PUSH1 0x5 DUP2 LT ISZERO PUSH2 0x9DB JUMPI DUP2 MLOAD DUP4 MSTORE PUSH1 0x20 SWAP3 DUP4 ADD SWAP3 SWAP1 SWAP2 ADD SWAP1 PUSH1 0x1 ADD PUSH2 0x9BC JUMP JUMPDEST POP POP POP PUSH1 0xA0 DUP3 ADD SWAP6 SWAP1 SWAP6 MSTORE PUSH1 0x1 PUSH1 0x1 PUSH1 0xA0 SHL SUB SWAP4 DUP5 AND PUSH1 0xC0 DUP3 ADD MSTORE SWAP2 SWAP1 SWAP3 AND PUSH1 0xE0 DUP3 ADD MSTORE PUSH2 0x100 ADD MSTORE SWAP2 SWAP1 POP JUMP JUMPDEST SWAP2 ISZERO ISZERO DUP3 MSTORE PUSH1 0x20 DUP3 ADD MSTORE PUSH1 0x40 ADD SWAP1 JUMP JUMPDEST SWAP4 DUP5 MSTORE PUSH1 0xFF SWAP3 SWAP1 SWAP3 AND PUSH1 0x20 DUP5 ADD MSTORE PUSH1 0x40 DUP4 ADD MSTORE PUSH1 0x60 DUP3 ADD MSTORE PUSH1 0x80 ADD SWAP1 JUMP JUMPDEST SWAP1 DUP2 MSTORE PUSH1 0x20 ADD SWAP1 JUMP INVALID LOG2 PUSH5 0x6970667358 0x22 SLT KECCAK256 0xC6 SMOD 0xB2 SWAP16 LOG4 SWAP3 0x4D 0xC4 SWAP13 SWAP6 0xD8 0xE7 SWAP10 0xD7 0xFC RETURNDATACOPY DUP2 0x49 BALANCE CHAINID STOP AND PUSH9 0x9531BE0D9E53AC5927 PUSH5 0x736F6C6343 STOP ADDMOD STOP STOP CALLER PUSH1 0x80 PUSH1 0x40 MSTORE CALLVALUE DUP1 ISZERO PUSH2 0x10 JUMPI PUSH1 0x0 DUP1 REVERT JUMPDEST POP PUSH2 0x2AC DUP1 PUSH2 0x20 PUSH1 0x0 CODECOPY PUSH1 0x0 RETURN INVALID PUSH1 0x80 PUSH1 0x40 MSTORE PUSH1 0x4 CALLDATASIZE LT PUSH2 0x34 JUMPI PUSH1 0x0 CALLDATALOAD PUSH1 0xE0 SHR DUP1 PUSH4 0x14EA8C4E EQ PUSH2 0x39 JUMPI DUP1 PUSH4 0x5BBC1A04 EQ PUSH2 0x4E JUMPI DUP1 PUSH4 0xCFC347CF EQ PUSH2 0x61 JUMPI JUMPDEST PUSH1 0x0 DUP1 REVERT JUMPDEST PUSH2 0x4C PUSH2 0x47 CALLDATASIZE PUSH1 0x4 PUSH2 0x232 JUMP JUMPDEST PUSH2 0x98 JUMP JUMPDEST STOP JUMPDEST PUSH2 0x4C PUSH2 0x5C CALLDATASIZE PUSH1 0x4 PUSH2 0x232 JUMP JUMPDEST PUSH2 0xD3 JUMP JUMPDEST CALLVALUE DUP1 ISZERO PUSH2 0x6D JUMPI PUSH1 0x0 DUP1 REVERT JUMPDEST POP PUSH2 0x81 PUSH2 0x7C CALLDATASIZE PUSH1 0x4 PUSH2 0x211 JUMP JUMPDEST PUSH2 0x11B JUMP JUMPDEST PUSH1 0x40 MLOAD PUSH2 0x8F SWAP3 SWAP2 SWAP1 PUSH2 0x266 JUMP JUMPDEST PUSH1 0x40 MLOAD DUP1 SWAP2 SUB SWAP1 RETURN JUMPDEST DUP1 PUSH1 0x0 MSTORE DUP2 DUP4 CHAINID PUSH32 0x31A11E5F15E0FBF9FA21513AFCD0B26821D8524893395636633BDAC130BE8CE2 PUSH1 0x20 PUSH1 0x0 LOG4 PUSH2 0xCE DUP2 PUSH2 0x133 JUMP JUMPDEST POP POP POP JUMP JUMPDEST DUP1 PUSH1 0x0 MSTORE DUP2 DUP4 CHAINID PUSH32 0x65E7D15F348DCCEB483E723CC14DC98456634DFFEC85E8FF9772EAE549A6159C PUSH1 0x20 PUSH1 0x0 LOG4 PUSH2 0x10A PUSH1 0x0 PUSH2 0x133 JUMP JUMPDEST PUSH2 0xCE PUSH4 0xBFA8175 PUSH1 0xE2 SHL DUP3 PUSH2 0x180 JUMP JUMPDEST PUSH1 0x0 SWAP1 DUP2 MSTORE PUSH1 0x20 SWAP1 KECCAK256 PUSH1 0x2 DUP2 ADD SLOAD PUSH1 0x3 SWAP1 SWAP2 ADD SLOAD SWAP1 SWAP2 JUMP JUMPDEST CALLER PUSH1 0x0 MSTORE PUSH1 0x20 PUSH1 0x0 KECCAK256 PUSH1 0x2 DUP2 ADD SLOAD PUSH1 0x0 DUP2 EQ PUSH2 0x157 JUMPI PUSH1 0x3 DUP3 ADD SLOAD DUP4 ADD SWAP3 POP PUSH2 0x169 JUMP JUMPDEST PUSH8 0x3B0B6BA1032B939 PUSH1 0xA9 SHL SLOAD DUP4 ADD SWAP3 POP JUMPDEST POP PUSH2 0x17D SWAP1 POP PUSH4 0xA9059CBB PUSH1 0xE0 SHL DUP3 PUSH2 0x180 JUMP JUMPDEST POP JUMP JUMPDEST DUP2 SLOAD PUSH4 0x23B872DD PUSH1 0xE0 SHL PUSH1 0x80 MSTORE CALLER PUSH1 0x84 MSTORE ADDRESS PUSH1 0xA4 MSTORE DUP2 PUSH1 0xC4 MSTORE PUSH1 0x0 DUP1 PUSH1 0x64 PUSH1 0x80 PUSH1 0x0 DUP6 GAS CALL PUSH2 0x1D4 JUMPI PUSH3 0x461BCD PUSH1 0xE5 SHL PUSH1 0x80 MSTORE PUSH1 0x1 PUSH1 0xE5 SHL PUSH1 0xA0 MSTORE PUSH12 0x2DB9BC8185C1C1C9BDD985B PUSH1 0x8A SHL PUSH1 0xC0 MSTORE PUSH1 0x64 PUSH1 0x80 REVERT JUMPDEST PUSH4 0x852CD8D PUSH1 0xE3 SHL PUSH1 0x80 MSTORE DUP2 PUSH1 0x84 MSTORE PUSH1 0x0 DUP1 PUSH1 0x24 PUSH1 0x80 PUSH1 0x0 DUP6 GAS CALL POP POP POP POP JUMP JUMPDEST DUP1 CALLDATALOAD PUSH1 0x1 PUSH1 0x1 PUSH1 0xA0 SHL SUB DUP2 AND DUP2 EQ PUSH2 0x20C JUMPI PUSH1 0x0 DUP1 REVERT JUMPDEST SWAP2 SWAP1 POP JUMP JUMPDEST PUSH1 0x0 PUSH1 0x20 DUP3 DUP5 SUB SLT ISZERO PUSH2 0x222 JUMPI DUP1 DUP2 REVERT JUMPDEST PUSH2 0x22B DUP3 PUSH2 0x1F5 JUMP JUMPDEST SWAP4 SWAP3 POP POP POP JUMP JUMPDEST PUSH1 0x0 DUP1 PUSH1 0x0 PUSH1 0x60 DUP5 DUP7 SUB SLT ISZERO PUSH2 0x246 JUMPI DUP2 DUP3 REVERT JUMPDEST DUP4 CALLDATALOAD SWAP3 POP PUSH2 0x256 PUSH1 0x20 DUP6 ADD PUSH2 0x1F5 JUMP JUMPDEST SWAP2 POP PUSH1 0x40 DUP5 ADD CALLDATALOAD SWAP1 POP SWAP3 POP SWAP3 POP SWAP3 JUMP JUMPDEST SWAP2 ISZERO ISZERO DUP3 MSTORE PUSH1 0x20 DUP3 ADD MSTORE PUSH1 0x40 ADD SWAP1 JUMP INVALID LOG2 PUSH5 0x6970667358 0x22 SLT KECCAK256 ORIGIN SUB RETURNDATASIZE 0xC3 0xD2 0xB0 LOG1 0xDE 0xC DUP8 0xFC 0x5F SIGNEXTEND 0xE7 AND 0xE 0xE9 0xFC 0xE5 0xB0 SWAP2 DUP8 0xD0 ADDMOD DUP1 0xB6 0x2A RETURNDATASIZE STATICCALL 0xD1 PUSH32 0x4964736F6C63430008000033608060405234801561001057600080FD5B506102 0x25 DUP1 PUSH2 0x20 PUSH1 0x0 CODECOPY PUSH1 0x0 RETURN INVALID PUSH1 0x80 PUSH1 0x40 MSTORE CALLVALUE DUP1 ISZERO PUSH2 0x10 JUMPI PUSH1 0x0 DUP1 REVERT JUMPDEST POP PUSH1 0x4 CALLDATASIZE LT PUSH2 0x2B JUMPI PUSH1 0x0 CALLDATALOAD PUSH1 0xE0 SHR DUP1 PUSH4 0xC9D27AFE EQ PUSH2 0x30 JUMPI JUMPDEST PUSH1 0x0 DUP1 REVERT JUMPDEST PUSH2 0x43 PUSH2 0x3E CALLDATASIZE PUSH1 0x4 PUSH2 0x1BC JUMP JUMPDEST PUSH2 0x45 JUMP JUMPDEST STOP JUMPDEST PUSH1 0x4 DUP2 ADD PUSH1 0x0 MSTORE DUP2 PUSH32 0x33952EF907843FD2DDD118A92DD935DEBF65B72965A557A364EA08DEFFCA032F PUSH1 0x20 PUSH1 0x0 LOG2 DUP2 PUSH1 0x0 MSTORE PUSH1 0x20 PUSH1 0x0 KECCAK256 PUSH1 0x0 DUP1 PUSH1 0x0 DUP4 JUMPDEST PUSH1 0x5 DUP6 ADD DUP2 LT ISZERO PUSH2 0xEF JUMPI DUP1 SLOAD DUP1 PUSH2 0x9E JUMPI DUP2 SWAP3 POP POP PUSH2 0xEF JUMP JUMPDEST DUP1 ISZERO PUSH2 0xD4 JUMPI PUSH1 0x1 PUSH1 0xE5 SHL DUP2 GT PUSH1 0x1 DUP2 EQ PUSH2 0xBE JUMPI PUSH1 0x1 DUP6 ADD SWAP5 POP PUSH2 0xD2 JUMP JUMPDEST PUSH1 0x1 DUP7 ADD SWAP6 POP DUP2 PUSH1 0x0 MSTORE PUSH1 0x0 DUP1 MSTORE8 PUSH1 0x0 MLOAD SWAP2 POP JUMPDEST POP JUMPDEST CALLER DUP2 EQ ISZERO PUSH2 0xE6 JUMPI PUSH1 0x0 SWAP3 POP POP PUSH2 0xEF JUMP JUMPDEST POP PUSH1 0x1 ADD PUSH2 0x83 JUMP JUMPDEST POP PUSH4 0xBFA8175 PUSH1 0xE2 SHL PUSH1 0x0 MSTORE CALLER PUSH1 0x4 MSTORE PUSH1 0x40 PUSH1 0x0 PUSH1 0x24 PUSH1 0x0 PUSH4 0xBFA8175 PUSH1 0xE2 SHL SLOAD GAS STATICCALL POP DUP4 PUSH1 0x5 ADD DUP2 ISZERO PUSH1 0x8 DUP7 ADD SLOAD PUSH1 0x20 MLOAD EQ ISZERO PUSH1 0x0 MLOAD ISZERO OR OR ISZERO PUSH2 0x133 JUMPI PUSH1 0x0 DUP1 REVERT JUMPDEST CALLER PUSH1 0x0 MSTORE DUP6 PUSH1 0x0 MSTORE8 PUSH1 0x0 MLOAD DUP3 SSTORE PUSH1 0x2 DUP4 EQ PUSH1 0x2 DUP6 EQ OR ISZERO PUSH2 0x1B3 JUMPI DUP6 DUP1 ISZERO PUSH2 0x160 JUMPI PUSH1 0x1 DUP6 ADD SWAP5 POP PUSH2 0x167 JUMP JUMPDEST PUSH1 0x1 DUP5 ADD SWAP4 POP JUMPDEST POP PUSH1 0x7 PUSH1 0x0 MSTORE PUSH1 0x2 DUP5 GT ISZERO PUSH2 0x187 JUMPI PUSH1 0x1 PUSH1 0x6 DUP7 ADD SLOAD PUSH1 0x5 SHL SSTORE PUSH1 0x6 PUSH1 0x0 MSTORE JUMPDEST PUSH1 0x0 DUP2 SSTORE DUP7 PUSH32 0x33952EF907843FD2DDD118A92DD935DEBF65B72965A557A364EA08DEFFCA032F PUSH1 0x20 PUSH1 0x0 LOG2 JUMPDEST POP POP POP POP POP POP POP JUMP JUMPDEST PUSH1 0x0 DUP1 PUSH1 0x40 DUP4 DUP6 SUB SLT ISZERO PUSH2 0x1CE JUMPI DUP2 DUP3 REVERT JUMPDEST DUP3 CALLDATALOAD SWAP2 POP PUSH1 0x20 DUP4 ADD CALLDATALOAD DUP1 ISZERO ISZERO DUP2 EQ PUSH2 0x1E4 JUMPI DUP2 DUP3 REVERT JUMPDEST DUP1 SWAP2 POP POP SWAP3 POP SWAP3 SWAP1 POP JUMP INVALID LOG2 PUSH5 0x6970667358 0x22 SLT KECCAK256 0xC8 CODECOPY 0xE PUSH16 0x96D76714717CA55C0CAF867176AA0E58 0xAD SWAP9 DUP12 MSIZE STOP 0xE3 0xCC 0x5F 0xA8 INVALID EXTCODEHASH STATICCALL PUSH5 0x736F6C6343 STOP ADDMOD STOP STOP CALLER PUSH1 0x80 PUSH1 0x40 MSTORE CALLVALUE DUP1 ISZERO PUSH2 0x10 JUMPI PUSH1 0x0 DUP1 REVERT JUMPDEST POP PUSH2 0x225 DUP1 PUSH2 0x20 PUSH1 0x0 CODECOPY PUSH1 0x0 RETURN INVALID PUSH1 0x80 PUSH1 0x40 MSTORE CALLVALUE DUP1 ISZERO PUSH2 0x10 JUMPI PUSH1 0x0 DUP1 REVERT JUMPDEST POP PUSH1 0x4 CALLDATASIZE LT PUSH2 0x2B JUMPI PUSH1 0x0 CALLDATALOAD PUSH1 0xE0 SHR DUP1 PUSH4 0xC9D27AFE EQ PUSH2 0x30 JUMPI JUMPDEST PUSH1 0x0 DUP1 REVERT JUMPDEST PUSH2 0x43 PUSH2 0x3E CALLDATASIZE PUSH1 0x4 PUSH2 0x1BC JUMP JUMPDEST PUSH2 0x45 JUMP JUMPDEST STOP JUMPDEST PUSH1 0x4 DUP2 ADD PUSH1 0x0 MSTORE DUP2 PUSH32 0x33952EF907843FD2DDD118A92DD935DEBF65B72965A557A364EA08DEFFCA032F PUSH1 0x20 PUSH1 0x0 LOG2 DUP2 PUSH1 0x0 MSTORE PUSH1 0x20 PUSH1 0x0 KECCAK256 PUSH1 0x0 DUP1 PUSH1 0x0 DUP4 JUMPDEST PUSH1 0x5 DUP6 ADD DUP2 LT ISZERO PUSH2 0xEF JUMPI DUP1 SLOAD DUP1 PUSH2 0x9E JUMPI DUP2 SWAP3 POP POP PUSH2 0xEF JUMP JUMPDEST DUP1 ISZERO PUSH2 0xD4 JUMPI PUSH1 0x1 PUSH1 0xE5 SHL DUP2 GT PUSH1 0x1 DUP2 EQ PUSH2 0xBE JUMPI PUSH1 0x1 DUP6 ADD SWAP5 POP PUSH2 0xD2 JUMP JUMPDEST PUSH1 0x1 DUP7 ADD SWAP6 POP DUP2 PUSH1 0x0 MSTORE PUSH1 0x0 DUP1 MSTORE8 PUSH1 0x0 MLOAD SWAP2 POP JUMPDEST POP JUMPDEST CALLER DUP2 EQ ISZERO PUSH2 0xE6 JUMPI PUSH1 0x0 SWAP3 POP POP PUSH2 0xEF JUMP JUMPDEST POP PUSH1 0x1 ADD PUSH2 0x83 JUMP JUMPDEST POP PUSH4 0xBFA8175 PUSH1 0xE2 SHL PUSH1 0x0 MSTORE CALLER PUSH1 0x4 MSTORE PUSH1 0x40 PUSH1 0x0 PUSH1 0x24 PUSH1 0x0 PUSH4 0xBFA8175 PUSH1 0xE2 SHL SLOAD GAS STATICCALL POP DUP4 PUSH1 0x5 ADD DUP2 ISZERO PUSH1 0x8 DUP7 ADD SLOAD PUSH1 0x20 MLOAD EQ ISZERO PUSH1 0x0 MLOAD ISZERO OR OR ISZERO PUSH2 0x133 JUMPI PUSH1 0x0 DUP1 REVERT JUMPDEST CALLER PUSH1 0x0 MSTORE DUP6 PUSH1 0x0 MSTORE8 PUSH1 0x0 MLOAD DUP3 SSTORE PUSH1 0x2 DUP4 EQ PUSH1 0x2 DUP6 EQ OR ISZERO PUSH2 0x1B3 JUMPI DUP6 DUP1 ISZERO PUSH2 0x160 JUMPI PUSH1 0x1 DUP6 ADD SWAP5 POP PUSH2 0x167 JUMP JUMPDEST PUSH1 0x1 DUP5 ADD SWAP4 POP JUMPDEST POP PUSH1 0x7 PUSH1 0x0 MSTORE PUSH1 0x2 DUP5 GT ISZERO PUSH2 0x187 JUMPI PUSH1 0x0 PUSH1 0x6 DUP7 ADD SLOAD PUSH1 0x5 SHL SSTORE PUSH1 0x6 PUSH1 0x0 MSTORE JUMPDEST PUSH1 0x0 DUP2 SSTORE DUP7 PUSH32 0x33952EF907843FD2DDD118A92DD935DEBF65B72965A557A364EA08DEFFCA032F PUSH1 0x20 PUSH1 0x0 LOG2 JUMPDEST POP POP POP POP POP POP POP JUMP JUMPDEST PUSH1 0x0 DUP1 PUSH1 0x40 DUP4 DUP6 SUB SLT ISZERO PUSH2 0x1CE JUMPI DUP2 DUP3 REVERT JUMPDEST DUP3 CALLDATALOAD SWAP2 POP PUSH1 0x20 DUP4 ADD CALLDATALOAD DUP1 ISZERO ISZERO DUP2 EQ PUSH2 0x1E4 JUMPI DUP2 DUP3 REVERT JUMPDEST DUP1 SWAP2 POP POP SWAP3 POP SWAP3 SWAP1 POP JUMP INVALID LOG2 PUSH5 0x6970667358 0x22 SLT KECCAK256 0xCE SWAP5 DUP7 0x5E INVALID DUP4 0x22 0xC 0xD5 DUP6 0x2C DIFFICULTY PUSH9 0x89CA1D648B34B44FA8 SWAP16 SWAP1 0xB3 0x2B 0x2F 0xDC DUP13 SGT 0xAE 0xA9 PUSH5 0x736F6C6343 STOP ADDMOD STOP STOP CALLER PUSH1 0x80 PUSH1 0x40 MSTORE CALLVALUE DUP1 ISZERO PUSH2 0x10 JUMPI PUSH1 0x0 DUP1 REVERT JUMPDEST POP PUSH2 0x274 DUP1 PUSH2 0x20 PUSH1 0x0 CODECOPY PUSH1 0x0 RETURN INVALID PUSH1 0x80 PUSH1 0x40 MSTORE CALLVALUE DUP1 ISZERO PUSH2 0x10 JUMPI PUSH1 0x0 DUP1 REVERT JUMPDEST POP PUSH1 0x4 CALLDATASIZE LT PUSH2 0x2B JUMPI PUSH1 0x0 CALLDATALOAD PUSH1 0xE0 SHR DUP1 PUSH4 0xC9D27AFE EQ PUSH2 0x30 JUMPI JUMPDEST PUSH1 0x0 DUP1 REVERT JUMPDEST PUSH2 0x43 PUSH2 0x3E CALLDATASIZE PUSH1 0x4 PUSH2 0x20B JUMP JUMPDEST PUSH2 0x45 JUMP JUMPDEST STOP JUMPDEST PUSH1 0x4 DUP2 ADD PUSH1 0x0 MSTORE DUP2 PUSH32 0x33952EF907843FD2DDD118A92DD935DEBF65B72965A557A364EA08DEFFCA032F PUSH1 0x20 PUSH1 0x0 LOG2 DUP2 PUSH1 0x0 MSTORE PUSH1 0x20 PUSH1 0x0 KECCAK256 PUSH1 0x0 DUP1 PUSH1 0x0 DUP4 JUMPDEST PUSH1 0x5 DUP6 ADD DUP2 LT ISZERO PUSH2 0xEF JUMPI DUP1 SLOAD DUP1 PUSH2 0x9E JUMPI DUP2 SWAP3 POP POP PUSH2 0xEF JUMP JUMPDEST DUP1 ISZERO PUSH2 0xD4 JUMPI PUSH1 0x1 PUSH1 0xE5 SHL DUP2 GT PUSH1 0x1 DUP2 EQ PUSH2 0xBE JUMPI PUSH1 0x1 DUP6 ADD SWAP5 POP PUSH2 0xD2 JUMP JUMPDEST PUSH1 0x1 DUP7 ADD SWAP6 POP DUP2 PUSH1 0x0 MSTORE PUSH1 0x0 DUP1 MSTORE8 PUSH1 0x0 MLOAD SWAP2 POP JUMPDEST POP JUMPDEST CALLER DUP2 EQ ISZERO PUSH2 0xE6 JUMPI PUSH1 0x0 SWAP3 POP POP PUSH2 0xEF JUMP JUMPDEST POP PUSH1 0x1 ADD PUSH2 0x83 JUMP JUMPDEST POP PUSH4 0xBFA8175 PUSH1 0xE2 SHL PUSH1 0x0 MSTORE CALLER PUSH1 0x4 MSTORE PUSH1 0x40 PUSH1 0x0 PUSH1 0x24 PUSH1 0x0 PUSH4 0xBFA8175 PUSH1 0xE2 SHL SLOAD GAS STATICCALL POP DUP4 PUSH1 0x5 ADD DUP2 ISZERO PUSH1 0x8 DUP7 ADD SLOAD PUSH1 0x20 MLOAD EQ ISZERO PUSH1 0x0 MLOAD ISZERO OR OR ISZERO PUSH2 0x133 JUMPI PUSH1 0x0 DUP1 REVERT JUMPDEST CALLER PUSH1 0x0 MSTORE DUP6 PUSH1 0x0 MSTORE8 PUSH1 0x0 MLOAD DUP3 SSTORE PUSH1 0x2 DUP4 EQ PUSH1 0x2 DUP6 EQ OR ISZERO PUSH2 0x202 JUMPI DUP6 DUP1 ISZERO PUSH2 0x160 JUMPI PUSH1 0x1 DUP6 ADD SWAP5 POP PUSH2 0x167 JUMP JUMPDEST PUSH1 0x1 DUP5 ADD SWAP4 POP JUMPDEST POP PUSH1 0x7 PUSH1 0x0 MSTORE PUSH1 0x2 DUP5 GT ISZERO PUSH2 0x1D6 JUMPI PUSH4 0xA9059CBB PUSH1 0xE0 SHL PUSH1 0x80 MSTORE PUSH1 0x6 DUP6 ADD SLOAD PUSH1 0x84 MSTORE PUSH1 0x5 DUP6 ADD SLOAD PUSH1 0xA4 MSTORE PUSH1 0x0 DUP1 PUSH1 0x44 PUSH1 0x80 PUSH1 0x0 PUSH4 0xA9059CBB PUSH1 0xE0 SHL SLOAD GAS CALL PUSH2 0x1D0 JUMPI PUSH3 0x461BCD PUSH1 0xE5 SHL PUSH1 0x80 MSTORE PUSH1 0x1 PUSH1 0xE5 SHL PUSH1 0xA0 MSTORE PUSH8 0x3B0B6BA1032B939 PUSH1 0xA9 SHL PUSH1 0xC0 MSTORE PUSH1 0x64 PUSH1 0x80 REVERT JUMPDEST PUSH1 0x6 PUSH1 0x0 MSTORE JUMPDEST PUSH1 0x0 DUP2 SSTORE DUP7 PUSH32 0x33952EF907843FD2DDD118A92DD935DEBF65B72965A557A364EA08DEFFCA032F PUSH1 0x20 PUSH1 0x0 LOG2 JUMPDEST POP POP POP POP POP POP POP JUMP JUMPDEST PUSH1 0x0 DUP1 PUSH1 0x40 DUP4 DUP6 SUB SLT ISZERO PUSH2 0x21D JUMPI DUP2 DUP3 REVERT JUMPDEST DUP3 CALLDATALOAD SWAP2 POP PUSH1 0x20 DUP4 ADD CALLDATALOAD DUP1 ISZERO ISZERO DUP2 EQ PUSH2 0x233 JUMPI DUP2 DUP3 REVERT JUMPDEST DUP1 SWAP2 POP POP SWAP3 POP SWAP3 SWAP1 POP JUMP INVALID LOG2 PUSH5 0x6970667358 0x22 SLT KECCAK256 SWAP6 EXTCODECOPY GAS STATICCALL 0xDA 0x4A BALANCE 0xF 0xFB MOD SWAP13 DUP7 EXP PUSH7 0xC0DBA0973645CA 0xBB 0x22 PUSH22 0x914D559C31A9E94164736F6C63430008000033000000 "
		},
		"gasEstimates": {
			"creation": {
				"codeDepositCost": "38200",
				"executionCost": "infinite",
				"totalCost": "infinite"
			},
			"external": {
				"contractAddresses()": "3532"
			}
		},
		"methodIdentifiers": {
			"contractAddresses()": "53e8a550"
		}
	},
	"abi": [
		{
			"inputs": [],
			"stateMutability": "nonpayable",
			"type": "constructor"
		},
		{
			"inputs": [],
			"name": "contractAddresses",
			"outputs": [
				{
					"internalType": "address",
					"name": "nod",
					"type": "address"
				},
				{
					"internalType": "address",
					"name": "mag",
					"type": "address"
				},
				{
					"internalType": "address",
					"name": "mac",
					"type": "address"
				},
				{
					"internalType": "address",
					"name": "crc",
					"type": "address"
				}
			],
			"stateMutability": "view",
			"type": "function"
		}
	]
}